{
  "transactions": [
    {
      "hash": "0xb6ef243125dabaef118bc8da005deb7e495e25cffaa29c7111ec3ce6b670d548",
      "transactionType": "CREATE",
      "contractName": "TestUSDC",
      "contractAddress": "0x7218612f2bd3ca5676e1b30384558244358c4188",
      "function": null,
      "arguments": [
        "1000000000000"
      ],
      "transaction": {
        "from": "0x027822307511a055eb0f5907f2685dab1204e14b",
        "gas": "0x9f97a",
        "value": "0x0",
        "input": "0x60803461019a57601f6107fd38819003918201601f19168301916001600160401b0383118484101761019e5780849260209460405283398101031261019a57516100495f546101b2565b601f8111610153575b507f54657374205553444300000000000000000000000000000000000000000000125f55600154610082906101b2565b601f811161010b575b506008635553444360e01b01600155600660ff196002541617600255335f52600460205260405f206100be8282546101ea565b90556100cc816003546101ea565b6003556040519081525f7fddf252ad1be2c89b69c2b068fc378daa952ba7f163c4a11628f55a4df523b3ef60203393a36040516105f1908161020c8239f35b60015f52601f0160051c7fb10e2d527612073b26eecdfd717e6a320cf44b4afac2b0732d9fcbe2b7fa0cf6908101905b818110610148575061008b565b5f815560010161013b565b5f8052601f0160051c7f290decd9548b62a8d60345a988386fc84ba6bc95484008f6362f93160ef3e563908101905b81811061018f5750610052565b5f8155600101610182565b5f80fd5b634e487b7160e01b5f52604160045260245ffd5b90600182811c921680156101e0575b60208310146101cc57565b634e487b7160e01b5f52602260045260245ffd5b91607f16916101c1565b919082018092116101f757565b634e487b7160e01b5f52601160045260245ffdfe60806040526004361015610011575f80fd5b5f3560e01c806306fdde03146103bb578063095ea7b31461034257806318160ddd1461032557806323b872dd14610277578063313ce5671461025757806370a082311461021f57806395d89b4114610101578063a9059cbb146100d05763dd62ed3e1461007c575f80fd5b346100cc5760403660031901126100cc576100956104b7565b61009d6104cd565b6001600160a01b039182165f908152600560209081526040808320949093168252928352819020549051908152f35b5f80fd5b346100cc5760403660031901126100cc576100f66100ec6104b7565b6024359033610504565b602060405160018152f35b346100cc575f3660031901126100cc576040515f6001548060011c90600181168015610215575b602083108114610201578285529081156101e5575060011461018f575b50819003601f01601f191681019067ffffffffffffffff82118183101761017b5760408290528190610177908261048d565b0390f35b634e487b7160e01b5f52604160045260245ffd5b60015f9081529091507fb10e2d527612073b26eecdfd717e6a320cf44b4afac2b0732d9fcbe2b7fa0cf65b8282106101cf57506020915082010182610145565b60018160209254838588010152019101906101ba565b90506020925060ff191682840152151560051b82010182610145565b634e487b7160e01b5f52602260045260245ffd5b91607f1691610128565b346100cc5760203660031901126100cc576001600160a01b036102406104b7565b165f526004602052602060405f2054604051908152f35b346100cc575f3660031901126100cc57602060ff60025416604051908152f35b346100cc5760603660031901126100cc576102906104b7565b6102986104cd565b6001600160a01b0382165f8181526005602090815260408083203384529091529020549260443592918385106102f4576102d5846100f6966104e3565b5f91825260056020908152604080842033855290915290912055610504565b60405162461bcd60e51b8152602060048201526009602482015268616c6c6f77616e636560b81b6044820152606490fd5b346100cc575f3660031901126100cc576020600354604051908152f35b346100cc5760403660031901126100cc5761035b6104b7565b335f8181526005602090815260408083206001600160a01b03909516808452948252918290206024359081905591519182527f8c5be1e5ebec7d5bd14f71427d1e84f3dd0314c0f7b2291e5b200ac8c7c3b92591a3602060405160018152f35b346100cc575f3660031901126100cc576040515f5f548060011c90600181168015610483575b602083108114610201578285529081156101e5575060011461042f5750819003601f01601f191681019067ffffffffffffffff82118183101761017b5760408290528190610177908261048d565b5f8080529091507f290decd9548b62a8d60345a988386fc84ba6bc95484008f6362f93160ef3e5635b82821061046d57506020915082010182610145565b6001816020925483858801015201910190610458565b91607f16916103e1565b602060409281835280519182918282860152018484015e5f828201840152601f01601f1916010190565b600435906001600160a01b03821682036100cc57565b602435906001600160a01b03821682036100cc57565b919082039182116104f057565b634e487b7160e01b5f52601160045260245ffd5b60018060a01b031690815f5260046020528260405f20541061058c57815f52600460205260405f206105378482546104e3565b90556001600160a01b03165f818152600460205260409020805491938281019283106104f0577fddf252ad1be2c89b69c2b068fc378daa952ba7f163c4a11628f55a4df523b3ef9260209255604051908152a3565b60405162461bcd60e51b815260206004820152600760248201526662616c616e636560c81b6044820152606490fdfea2646970667358221220b873eefdf946180fe9f5fcc6e5855dbcc77efff679e5e4d0cc21700a208e84cb64736f6c634300081f0033000000000000000000000000000000000000000000000000000000e8d4a51000",
        "nonce": "0xe7",
        "chainId": "0x14a34"
      },
      "additionalContracts": [],
      "isFixedGasLimit": false
    },
    {
      "hash": "0x32e526f29f04ed11d28dc6dbd30f1c046567a692d6241c8d154b83bee1dc0312",
      "transactionType": "CREATE",
      "contractName": "ZKTReceiptNFT",
      "contractAddress": "0xc4cda3a0913558b5b8cbaa2b6a6a6dc5444fc2bf",
      "function": null,
      "arguments": [
        "0x0000000000000000000000000000000000000000"
      ],
      "transaction": {
        "from": "0x027822307511a055eb0f5907f2685dab1204e14b",
        "gas": "0x11c4f4",
        "value": "0x0",
        "input": "0x60803461015f57601f610ff138819003918201601f19168301916001600160401b038311848410176101635780849260209460405283398101031261015f57516001600160a01b0381169081900361015f5761005b5f54610177565b601f8111610118575b507f5a4b5420526563656970740000000000000000000000000000000000000000165f5560015461009490610177565b601f81116100d0575b50600a642d25aa16a960d91b01600155600280546001600160a01b031916919091179055604051610e4190816101b08239f35b60015f52601f0160051c7fb10e2d527612073b26eecdfd717e6a320cf44b4afac2b0732d9fcbe2b7fa0cf6908101905b81811061010d575061009d565b5f8155600101610100565b5f8052601f0160051c7f290decd9548b62a8d60345a988386fc84ba6bc95484008f6362f93160ef3e563908101905b8181106101545750610064565b5f8155600101610147565b5f80fd5b634e487b7160e01b5f52604160045260245ffd5b90600182811c921680156101a5575b602083101461019157565b634e487b7160e01b5f52602260045260245ffd5b91607f169161018656fe60806040526004361015610011575f80fd5b5f3560e01c806306fdde0314610acb5780630754617214610aa3578063095ea7b314610a8a5780630f7ee1ec14610a1657806318160ddd146109f957806323b872dd146109f457806342842e0e146109f45780636352211e146109b757806370a0823114610945578063837c00e81461071d57806395d89b411461063f578063a22cb46514610617578063b88d4fde146105cd578063bda6ad10146102b1578063c87b56dd146101855763fca3b5aa146100c9575f80fd5b34610181576020366003190112610181576100e2610c05565b600254906001600160a01b038216610147576001600160a01b0316908115610114576001600160a01b03191617600255005b60405162461bcd60e51b815260206004820152600b60248201526a6d696e746572207a65726f60a81b6044820152606490fd5b60405162461bcd60e51b81526020600482015260126024820152711b5a5b9d195c88185b1c9958591e481cd95d60721b6044820152606490fd5b5f80fd5b34610181576020366003190112610181576004355f818152600560205260409020546101bb906001600160a01b03161515610cdd565b60408051906101ca8183610b1f565b60078252602082019266697066733a2f2f60c81b84525f5260046020526003815f200192815192518091602085015e8201602081015f81525f94805461020f81610ae7565b9260018216918215610293575050600114610254575b50505061023e826102509403601f198101845283610b1f565b51918291602083526020830190610be1565b0390f35b909194505f5260205f205f905b82821061027d57505082602061023e9261025096010194610225565b6001816020925483858a01015201910190610261565b60ff1916905250508015150201602001925061023e82610250610225565b346101815760a0366003190112610181576102ca610c05565b6044359060243560643567ffffffffffffffff8111610181576102f1903690600401610c6f565b5f94919450608435938415158095036101815761031960018060a01b03600254163314610d1d565b6001600160a01b031691821561059e576003545f19811461058a576001019485600355855f52600560205260405f20846bffffffffffffffffffffffff60a01b825416179055835f52600660205260405f208054906001820180921161058a5755610385368489610da5565b60208151910120916040519760a0890189811067ffffffffffffffff821117610576576040528689526020890198828a52604081018481526103c8368885610da5565b9a606083019b8c52608083019687528a5f52600460205260405f2092518355516001830155600282019051151560ff801983541691161790556003810199519485519a67ffffffffffffffff8c11610576578b8b9761043360209e61042d8554610ae7565b85610d56565b8d90601f83116001146104c8579261048e836004947f8fef384f4262cb721410d7333492c140d5dded53f0ad2a698f864f3c8de6386d9c9d97946104b29a99975f926104bd575b50508160011b915f199060031b1c19161790565b90555b5191015560405194859485528b850152606060408501526060840191610deb565b0390a4604051908152f35b015190505f8061047a565b999493929190601f1982169a835f52815f209b5f5b8181106105445750927f8fef384f4262cb721410d7333492c140d5dded53f0ad2a698f864f3c8de6386d9b9c60049593600193836104b29c9b9a99971061052c575b505050811b019055610491565b01515f1960f88460031b161c191690555f808061051f565b939597999b509091939597999b6020600181928786015181550195019301908f9b9997959392919c9a9896949c6104dd565b634e487b7160e01b5f52604160045260245ffd5b634e487b7160e01b5f52601160045260245ffd5b60405162461bcd60e51b8152602060048201526007602482015266746f207a65726f60c81b6044820152606490fd5b34610181576080366003190112610181576105e6610c05565b506105ef610c1b565b5060643567ffffffffffffffff811161018157610610903690600401610c6f565b5050610cac565b3461018157604036600319011261018157610630610c05565b50610639610c9d565b50610cac565b34610181575f366003190112610181576040515f60015461065f81610ae7565b80845290600181169081156106f9575060011461069b575b6102508361068781850382610b1f565b604051918291602083526020830190610be1565b60015f9081527fb10e2d527612073b26eecdfd717e6a320cf44b4afac2b0732d9fcbe2b7fa0cf6939250905b8082106106df57509091508101602001610687610677565b9192600181602092548385880101520191019092916106c7565b60ff191660208086019190915291151560051b840190910191506106879050610677565b346101815760403660031901126101815760043560243567ffffffffffffffff811161018157610751903690600401610c6f565b9061076760018060a01b03600254163314610d1d565b5f83815260056020526040902054610789906001600160a01b03161515610cdd565b811561091457825f5260046020526107a6600360405f2001610b41565b91835f526004602052600360405f200167ffffffffffffffff8211610576576107d9826107d38354610ae7565b83610d56565b5f601f831160011461088757928261087792610830827fd76f0e7ae448bd46652cfdbba370527ab0e407e1e18ca33c797aca4ac84c30ff9896610869985f9161087c575b508160011b915f199060031b1c19161790565b90555b61083e368284610da5565b60208151910120875f526004602052600460405f200155604051948594604086526040860190610be1565b918483036020860152610deb565b0390a2005b90508501358b61081d565b601f19831690825f5260205f20915f5b8181106108fc575092610869959285927fd76f0e7ae448bd46652cfdbba370527ab0e407e1e18ca33c797aca4ac84c30ff989661087796106108e3575b5050600182811b019055610833565b8401355f19600385901b60f8161c1916905588806108d4565b9192602060018192868a013581550194019201610897565b60405162461bcd60e51b8152602060048201526009602482015268195b5c1d1e4810d25160ba1b6044820152606490fd5b34610181576020366003190112610181576001600160a01b03610966610c05565b168015610983575f526006602052602060405f2054604051908152f35b60405162461bcd60e51b815260206004820152600c60248201526b7a65726f206164647265737360a01b6044820152606490fd5b34610181576020366003190112610181576004355f526005602052602060018060a01b0360405f2054166109ec811515610cdd565b604051908152f35b610c31565b34610181575f366003190112610181576020600354604051908152f35b34610181576020366003190112610181576004355f52600460205260405f208054600182015491610a8060ff600283015416916004610a5760038301610b41565b91015492604051958695865260208601521515604085015260a0606085015260a0840190610be1565b9060808301520390f35b3461018157604036600319011261018157610639610c05565b34610181575f366003190112610181576002546040516001600160a01b039091168152602090f35b34610181575f366003190112610181576102506106875f610b41565b90600182811c92168015610b15575b6020831014610b0157565b634e487b7160e01b5f52602260045260245ffd5b91607f1691610af6565b90601f8019910116810190811067ffffffffffffffff82111761057657604052565b9060405191825f825492610b5484610ae7565b8084529360018116908115610bbf5750600114610b7b575b50610b7992500383610b1f565b565b90505f9291925260205f20905f915b818310610ba3575050906020610b79928201015f610b6c565b6020919350806001915483858901015201910190918492610b8a565b905060209250610b7994915060ff191682840152151560051b8201015f610b6c565b805180835260209291819084018484015e5f828201840152601f01601f1916010190565b600435906001600160a01b038216820361018157565b602435906001600160a01b038216820361018157565b34610181576060366003190112610181576004356001600160a01b038116810361018157506024356001600160a01b03811681036101815750610cac565b9181601f840112156101815782359167ffffffffffffffff8311610181576020838186019501011161018157565b60243590811515820361018157565b60405162461bcd60e51b815260206004820152600960248201526814d3d5531093d5539160ba1b6044820152606490fd5b15610ce457565b60405162461bcd60e51b81526020600482015260116024820152703737b732bc34b9ba32b73a103a37b5b2b760791b6044820152606490fd5b15610d2457565b60405162461bcd60e51b815260206004820152600a6024820152693737ba1036b4b73a32b960b11b6044820152606490fd5b601f8211610d6357505050565b5f5260205f20906020601f840160051c83019310610d9b575b601f0160051c01905b818110610d90575050565b5f8155600101610d85565b9091508190610d7c565b92919267ffffffffffffffff82116105765760405191610dcf601f8201601f191660200184610b1f565b829481845281830111610181578281602093845f960137010152565b908060209392818452848401375f828201840152601f01601f191601019056fea2646970667358221220235dd47e6d44f149509163389bf2f622cff287efb99e065b8bd3d469b637871764736f6c634300081f00330000000000000000000000000000000000000000000000000000000000000000",
        "nonce": "0xe8",
        "chainId": "0x14a34"
      },
      "additionalContracts": [],
      "isFixedGasLimit": false
    },
    {
      "hash": "0xc65b013f0e3f47ff5bf57ec058d296aed9f1dec477b4711ec70dc5ea7802345b",
      "transactionType": "CREATE",
      "contractName": "ZKTCampaignPool",
      "contractAddress": "0x3c2e012c77cf48dddc7e7368bf87ba823db66ef8",
      "function": null,
      "arguments": [
        "0x027822307511a055eB0f5907F2685DaB1204e14B",
        "0x7218612F2BD3CA5676E1B30384558244358C4188",
        "0xc4CdA3A0913558b5b8cbaa2b6A6a6Dc5444Fc2bf"
      ],
      "transaction": {
        "from": "0x027822307511a055eb0f5907f2685dab1204e14b",
        "gas": "0x168eda",
        "value": "0x0",
        "input": "0x60c03461018257601f6114c438819003918201601f19168301916001600160401b0383118484101761018657808492606094604052833981010312610182576100478161019a565b61005f60406100586020850161019a565b930161019a565b6001600160a01b03909116918215610150576001600160a01b031690811561011e576001600160a01b03169182156100ee575f80546001600160a01b03191691909117905560805260a05260405161131590816101af82396080518181816101160152818161023d0152610697015260a0518181816103e20152818161072901528181610af00152610e630152f35b60405162461bcd60e51b81526020600482015260086024820152676e6674207a65726f60c01b6044820152606490fd5b60405162461bcd60e51b815260206004820152600a602482015269746f6b656e207a65726f60b01b6044820152606490fd5b60405162461bcd60e51b815260206004820152600a60248201526961646d696e207a65726f60b01b6044820152606490fd5b5f80fd5b634e487b7160e01b5f52604160045260245ffd5b51906001600160a01b03821682036101825756fe60806040526004361015610011575f80fd5b5f5f3560e01c806311e4506c14610f7557806319e55d5c14610ee85780631a4686ac14610e1a5780631bde12ef14610c275780633f4ba83a14610bd0578063417cc5e814610ba157806342f67a1314610a815780635c975abb14610a5c57806369f5e26d146109a257806375829def146108ee57806376557a19146105f85780638456cb591461059b578063888c9a75146105715780639e70aced1461053e5780639eca2f1e146104c55780639f19d36114610411578063d7a7b899146103cc578063eb4f43f3146101a3578063f851a4401461017c578063f8cff744146101485763fc0c546a14610101575f80fd5b346101455780600319360112610145576040517f00000000000000000000000000000000000000000000000000000000000000006001600160a01b03168152602090f35b80fd5b5034610145576040366003190112610145576040602091600435815260048352818120602435825283522054604051908152f35b5034610145578060031936011261014557546040516001600160a01b039091168152602090f35b50346101455760403660031901126101455760043560243567ffffffffffffffff81116103c8576101d890369060040161111d565b916101fd60ff85546101f360018060a01b038216331461114e565b60a01c1615611254565b80845260016020526040842080549061021860ff8316611186565b60ff8260101c1661038f5762ff000019909116620100001781556001015491928215927f00000000000000000000000000000000000000000000000000000000000000006001600160a01b031691865b818110610273578780f35b61027e818389611230565b3590858952600460205260408920828a526020526040892054801561038557808502908582041488171561037157612710900491808a5260036020528960018060a01b036040822054166040519063a9059cbb60e01b82526004820152846024820152602081604481858c5af19081156103665760019561032b7fd776be6d27ffa3e0ad77b8e2d0446045520fccaf5dd1d0eaf6fc240db126d006936020938d9691610339575b506112a1565b604051908152a35b01610268565b6103599150843d811161035f575b61035181836111cd565b810190611289565b5f610325565b503d610347565b6040513d84823e3d90fd5b634e487b7160e01b8a52601160045260248afd5b5060019150610333565b60405162461bcd60e51b8152602060048201526011602482015270185b1c9958591e48191a5cd89d5c9cd959607a1b6044820152606490fd5b8280fd5b50346101455780600319360112610145576040517f00000000000000000000000000000000000000000000000000000000000000006001600160a01b03168152602090f35b5034610145576040366003190112610145576024356001600160a01b03811690600435908290036103c85761045060018060a01b03845416331461114e565b811561049257808352600260205260408320600160ff198254161790558252600360205260408220906bffffffffffffffffffffffff60a01b82541617905580f35b60405162461bcd60e51b815260206004820152600b60248201526a1e995c9bc81dd85b1b195d60aa1b6044820152606490fd5b503461014557602036600319011261014557604060e0916004358152600160205220805490600181015490600360028201549101549160ff6040519481811615158652818160081c1615156020870152818160101c161515604087015260181c1615156060850152608084015260a083015260c0820152f35b503461014557602036600319011261014557602090600435815260038252604060018060a01b0391205416604051908152f35b50346101455760203660031901126101455760406020916004358152600583522054604051908152f35b503461014557806003193601126101455780546105c2336001600160a01b0383161461114e565b60ff60a01b1916600160a01b1781557f9e87fac88ff661f02d44f95383c817fece4bce600a3dab7a54406878b965e7528180a180f35b50346101455760403660031901126101455760043560243561062160ff845460a01c1615611254565b818352600160205260408320805461063b60ff8216611186565b60ff8160181c166108c0576002820154421061088d57600382015442116108605760081c60ff16156108235781156107f8576040516323b872dd60e01b81523360048201523060248201526044810183905290602082606481887f00000000000000000000000000000000000000000000000000000000000000006001600160a01b03165af19182156107ed576001926106db9187916107d457506112a1565b016106e78282546111c0565b9055604051630bda6ad160e41b8152336004820152602481018390526044810182905260a0606482015260a48101849052608481018490529160208360c481877f00000000000000000000000000000000000000000000000000000000000000006001600160a01b03165af19283156107c9578493610791575b506040519182527fea322e94f28adbe50d17937d6786b189d187e04cbbfdd3ee0aaf9012ef1e74ac60203393a480f35b9092506020813d6020116107c1575b816107ad602093836111cd565b810103126107bd5751915f610761565b8380fd5b3d91506107a0565b6040513d86823e3d90fd5b610359915060203d60201161035f5761035181836111cd565b6040513d87823e3d90fd5b606460405162461bcd60e51b81526020600482015260046024820152637a65726f60e01b6044820152fd5b60405162461bcd60e51b8152602060048201526015602482015274185b1b1bd8d85d1a5bdb881b9bdd081b1bd8dad959605a1b6044820152606490fd5b60405162461bcd60e51b8152602060048201526005602482015264195b99195960da1b6044820152606490fd5b60405162461bcd60e51b815260206004820152600b60248201526a1b9bdd081cdd185c9d195960aa1b6044820152606490fd5b60405162461bcd60e51b815260206004820152600660248201526518db1bdcd95960d21b6044820152606490fd5b5034610145576020366003190112610145576004356001600160a01b0381169081900361099e5781546001600160a01b0381169061092d33831461114e565b8215610968576001600160a01b031916821783557ff8ccb027dfcd135e000e9d45e6cc2d662578a8825d4c45b5e32e0adf67e79ec68380a380f35b60405162461bcd60e51b815260206004820152600e60248201526d6e65772061646d696e207a65726f60901b6044820152606490fd5b5080fd5b5034610145576020366003190112610145576004356109cb60018060a01b03835416331461114e565b80825260016020526040822080546109e560ff8216611186565b60ff8160181c16610a265763ff000000191663010000001790557f45ff51dd7cc3c27ad7a963f6f2ea2c1bf7f0a50b22146faa52bfed0458ddd5e48280a280f35b60405162461bcd60e51b815260206004820152600e60248201526d185b1c9958591e4818db1bdcd95960921b6044820152606490fd5b503461014557806003193601126101455760ff6020915460a01c166040519015158152f35b50346101455760403660031901126101455760043567ffffffffffffffff811161099e57610ab390369060040161111d565b908260243567ffffffffffffffff811161099e57610ad89093929336906004016110ef565b9092610aee60018060a01b03845416331461114e565b7f00000000000000000000000000000000000000000000000000000000000000006001600160a01b031690835b818110610b26578480f35b610b31818389611230565b35833b15610b9d5785878692610b5b604051948593849363106f801d60e31b855260048501611203565b038183885af1908115610b92578691610b79575b5050600101610b1b565b81610b83916111cd565b610b8e57845f610b6f565b8480fd5b6040513d88823e3d90fd5b8580fd5b50346101455760203660031901126101455760ff60406020926004358152600284522054166040519015158152f35b50346101455780600319360112610145578054610bf7336001600160a01b0383161461114e565b60ff60a01b191681557fa45f47fdea8a1efdd9029a5691c7f759c32b7c698632b563573e155625d169338180a180f35b503461014557606036600319011261014557600435602435604435610c5660018060a01b03855416331461114e565b828452600160205260ff604085205416610dec5781811115610db85742811115610d855760405160e0810181811067ffffffffffffffff821117610d7157917f48883863e7ab83924fce34514467de88ad716c7d166f77fdbc804412b34c076293916040938452600181526003868860208401818152878501828152606086019083825260808701928484528a60a08901958b875260c08a01978b895281526001602052209751151560ff80198a5416911617885551151561ff0088549160081b169061ff00191617875551151562ff000087549160101b169062ff0000191617865551151563ff00000086549160181b169063ff00000019161785555160018501555160028401555191015582519182526020820152a280f35b634e487b7160e01b86526041600452602486fd5b60405162461bcd60e51b815260206004820152600b60248201526a195b99081a5b881c185cdd60aa1b6044820152606490fd5b60405162461bcd60e51b815260206004820152600c60248201526b696e76616c69642074696d6560a01b6044820152606490fd5b60405162461bcd60e51b815260206004820152600660248201526565786973747360d01b6044820152606490fd5b5034610ee4576040366003190112610ee45760243567ffffffffffffffff8111610ee457610e4c9036906004016110ef565b90610e6160018060a01b035f5416331461114e565b7f00000000000000000000000000000000000000000000000000000000000000006001600160a01b031691823b15610ee457610eb9925f928360405180968195829463106f801d60e31b845260043560048501611203565b03925af18015610ed957610ecb575080f35b610ed791505f906111cd565b005b6040513d5f823e3d90fd5b5f80fd5b34610ee4576020366003190112610ee457600435610f1060018060a01b035f5416331461114e565b805f52600560205261271060405f205403610f41575f908152600160205260409020805461ff001916610100179055005b60405162461bcd60e51b815260206004820152600c60248201526b6d757374206265203130302560a01b6044820152606490fd5b34610ee4576060366003190112610ee45760043560243560443591610fa460018060a01b035f5416331461114e565b805f52600160205260ff60405f2054610fbe828216611186565b60081c166110c157815f52600260205260ff60405f2054161561108957805f52600560205260405f2054815f52600460205260405f20835f5260205260405f205481039081116110755783611012916111c0565b5f82815260056020526040902081905561271010611044575f52600460205260405f20905f5260205260405f20555f80f35b60405162461bcd60e51b81526020600482015260096024820152686f766572203130302560b81b6044820152606490fd5b634e487b7160e01b5f52601160045260245ffd5b60405162461bcd60e51b815260206004820152601060248201526f1b99dbc81b9bdd08185c1c1c9bdd995960821b6044820152606490fd5b60405162461bcd60e51b81526020600482015260066024820152651b1bd8dad95960d21b6044820152606490fd5b9181601f84011215610ee45782359167ffffffffffffffff8311610ee45760208381860195010111610ee457565b9181601f84011215610ee45782359167ffffffffffffffff8311610ee4576020808501948460051b010111610ee457565b1561115557565b60405162461bcd60e51b81526020600482015260096024820152683737ba1030b236b4b760b91b6044820152606490fd5b1561118d57565b60405162461bcd60e51b815260206004820152600b60248201526a37379031b0b6b830b4b3b760a91b6044820152606490fd5b9190820180921161107557565b90601f8019910116810190811067ffffffffffffffff8211176111ef57604052565b634e487b7160e01b5f52604160045260245ffd5b91926060938192845260406020850152816040850152848401375f828201840152601f01601f1916010190565b91908110156112405760051b0190565b634e487b7160e01b5f52603260045260245ffd5b1561125b57565b60405162461bcd60e51b81526020600482015260066024820152651c185d5cd95960d21b6044820152606490fd5b90816020910312610ee457518015158103610ee45790565b156112a857565b60405162461bcd60e51b815260206004820152600f60248201526e1d1c985b9cd9995c8819985a5b1959608a1b6044820152606490fdfea26469706673582212201874c0906600576129a08c49cc33ba141805437764662be21a3507bd6762f17464736f6c634300081f0033000000000000000000000000027822307511a055eb0f5907f2685dab1204e14b0000000000000000000000007218612f2bd3ca5676e1b30384558244358c4188000000000000000000000000c4cda3a0913558b5b8cbaa2b6a6a6dc5444fc2bf",
        "nonce": "0xe9",
        "chainId": "0x14a34"
      },
      "additionalContracts": [],
      "isFixedGasLimit": false
    },
    {
      "hash": "0xc265b81693cc1474c799c7388ab0dce9ca91d11f3d361be65f1f056e7c393429",
      "transactionType": "CALL",
      "contractName": "ZKTReceiptNFT",
      "contractAddress": "0xc4cda3a0913558b5b8cbaa2b6a6a6dc5444fc2bf",
      "function": "setMinter(address)",
      "arguments": [
        "0x3c2E012c77CF48DdDC7E7368Bf87Ba823Db66Ef8"
      ],
      "transaction": {
        "from": "0x027822307511a055eb0f5907f2685dab1204e14b",
        "to": "0xc4cda3a0913558b5b8cbaa2b6a6a6dc5444fc2bf",
        "gas": "0xfc49",
        "value": "0x0",
        "input": "0xfca3b5aa0000000000000000000000003c2e012c77cf48dddc7e7368bf87ba823db66ef8",
        "nonce": "0xea",
        "chainId": "0x14a34"
      },
      "additionalContracts": [],
      "isFixedGasLimit": false
    },
    {
      "hash": "0xd45292d8bac84de0a09c3ebbe6f21f22d3bdf93af62d6cfde30ce1d733c64058",
      "transactionType": "CALL",
      "contractName": "ZKTCampaignPool",
      "contractAddress": "0x3c2e012c77cf48dddc7e7368bf87ba823db66ef8",
      "function": "createCampaign(bytes32,uint256,uint256)",
      "arguments": [
        "0x8750de1d37121f350cba3125ae50f1a56ab8440fe59938ca158120aa752fd72f",
        "1769339898",
        "1771931898"
      ],
      "transaction": {
        "from": "0x027822307511a055eb0f5907f2685dab1204e14b",
        "to": "0x3c2e012c77cf48dddc7e7368bf87ba823db66ef8",
        "gas": "0x204f5",
        "value": "0x0",
        "input": "0x1bde12ef8750de1d37121f350cba3125ae50f1a56ab8440fe59938ca158120aa752fd72f000000000000000000000000000000000000000000000000000000006975fbfa00000000000000000000000000000000000000000000000000000000699d88fa",
        "nonce": "0xeb",
        "chainId": "0x14a34"
      },
      "additionalContracts": [],
      "isFixedGasLimit": false
    },
    {
      "hash": "0x9cabfe86e848d399fd86dba5eb789a8047f7b27de839ade48038e03ddccff9c8",
      "transactionType": "CALL",
      "contractName": "ZKTCampaignPool",
      "contractAddress": "0x3c2e012c77cf48dddc7e7368bf87ba823db66ef8",
      "function": "approveNGO(bytes32,address)",
      "arguments": [
        "0xaf6f7411c9ec96f169dfcb406f5901e083e80e8c2e5275eb6aa86ae632d475d7",
        "0x2ca80Cc5e254C45E99281F670d694B22E6a90FC4"
      ],
      "transaction": {
        "from": "0x027822307511a055eb0f5907f2685dab1204e14b",
        "to": "0x3c2e012c77cf48dddc7e7368bf87ba823db66ef8",
        "gas": "0x17468",
        "value": "0x0",
        "input": "0x9f19d361af6f7411c9ec96f169dfcb406f5901e083e80e8c2e5275eb6aa86ae632d475d70000000000000000000000002ca80cc5e254c45e99281f670d694b22e6a90fc4",
        "nonce": "0xec",
        "chainId": "0x14a34"
      },
      "additionalContracts": [],
      "isFixedGasLimit": false
    },
    {
      "hash": "0x20f8e922a3db812f1a0c7efe77d1b45b4b957c1a48f153621497558f8edb4a81",
      "transactionType": "CALL",
      "contractName": "ZKTCampaignPool",
      "contractAddress": "0x3c2e012c77cf48dddc7e7368bf87ba823db66ef8",
      "function": "setAllocation(bytes32,bytes32,uint256)",
      "arguments": [
        "0x8750de1d37121f350cba3125ae50f1a56ab8440fe59938ca158120aa752fd72f",
        "0xaf6f7411c9ec96f169dfcb406f5901e083e80e8c2e5275eb6aa86ae632d475d7",
        "10000"
      ],
      "transaction": {
        "from": "0x027822307511a055eb0f5907f2685dab1204e14b",
        "to": "0x3c2e012c77cf48dddc7e7368bf87ba823db66ef8",
        "gas": "0x1a4e5",
        "value": "0x0",
        "input": "0x11e4506c8750de1d37121f350cba3125ae50f1a56ab8440fe59938ca158120aa752fd72faf6f7411c9ec96f169dfcb406f5901e083e80e8c2e5275eb6aa86ae632d475d70000000000000000000000000000000000000000000000000000000000002710",
        "nonce": "0xed",
        "chainId": "0x14a34"
      },
      "additionalContracts": [],
      "isFixedGasLimit": false
    },
    {
      "hash": "0x47c601f53f1b40602c96938110b2dc626f9c9f0859348199b44e0b5deb659a4e",
      "transactionType": "CALL",
      "contractName": "ZKTCampaignPool",
      "contractAddress": "0x3c2e012c77cf48dddc7e7368bf87ba823db66ef8",
      "function": "lockAllocation(bytes32)",
      "arguments": [
        "0x8750de1d37121f350cba3125ae50f1a56ab8440fe59938ca158120aa752fd72f"
      ],
      "transaction": {
        "from": "0x027822307511a055eb0f5907f2685dab1204e14b",
        "to": "0x3c2e012c77cf48dddc7e7368bf87ba823db66ef8",
        "gas": "0xa825",
        "value": "0x0",
        "input": "0x19e55d5c8750de1d37121f350cba3125ae50f1a56ab8440fe59938ca158120aa752fd72f",
        "nonce": "0xee",
        "chainId": "0x14a34"
      },
      "additionalContracts": [],
      "isFixedGasLimit": false
    },
    {
      "hash": "0x5759bb5a71ee6f1aa1fce3e88c27ac61913055348de0e9d033dc2c5a98291255",
      "transactionType": "CALL",
      "contractName": "ZKTCampaignPool",
      "contractAddress": "0x3c2e012c77cf48dddc7e7368bf87ba823db66ef8",
      "function": "transferAdmin(address)",
      "arguments": [
        "0xD264BE80817EAfaC5F7575698913FEc4cB38a016"
      ],
      "transaction": {
        "from": "0x027822307511a055eb0f5907f2685dab1204e14b",
        "to": "0x3c2e012c77cf48dddc7e7368bf87ba823db66ef8",
        "gas": "0x9977",
        "value": "0x0",
        "input": "0x75829def000000000000000000000000d264be80817eafac5f7575698913fec4cb38a016",
        "nonce": "0xef",
        "chainId": "0x14a34"
      },
      "additionalContracts": [],
      "isFixedGasLimit": false
    }
  ],
  "receipts": [
    {
      "status": "0x1",
      "cumulativeGasUsed": "0x5fdf31",
      "logs": [
        {
          "address": "0x7218612f2bd3ca5676e1b30384558244358c4188",
          "topics": [
            "0xddf252ad1be2c89b69c2b068fc378daa952ba7f163c4a11628f55a4df523b3ef",
            "0x0000000000000000000000000000000000000000000000000000000000000000",
            "0x000000000000000000000000027822307511a055eb0f5907f2685dab1204e14b"
          ],
          "data": "0x000000000000000000000000000000000000000000000000000000e8d4a51000",
          "blockHash": "0x8e49e119fc51545ef9f9fe09adbff6ba9b13bf89957c97d4773532b81b206849",
          "blockNumber": "0x2314e93",
          "blockTimestamp": "0x6975fc06",
          "transactionHash": "0xc265b81693cc1474c799c7388ab0dce9ca91d11f3d361be65f1f056e7c393429",
          "transactionIndex": "0xb",
          "logIndex": "0xad",
          "removed": false
        }
      ],
      "logsBloom": "0x00000000000000000000000000000000000000000000000000000080010000000000000000000000000000000000000000000000000000000000000000000000000000000000000000000008000000040000000000001000000000000000000000000000020000000000000000000800000000000000000000000010000000000000000000000000000000000000000000000000000000000000000000000000000000000000000000000000000000000000000000000000000000000000000000000002000000000000000000000000000000001000000000000000000020000000000000000000000000000000000002000000000000000000000000000000",
      "type": "0x2",
      "transactionHash": "0xc265b81693cc1474c799c7388ab0dce9ca91d11f3d361be65f1f056e7c393429",
      "transactionIndex": "0xb",
      "blockHash": "0x8e49e119fc51545ef9f9fe09adbff6ba9b13bf89957c97d4773532b81b206849",
      "blockNumber": "0x2314e93",
      "gasUsed": "0x7ac37",
      "effectiveGasPrice": "0x124f80",
      "blobGasUsed": "0x5e740",
      "from": "0x027822307511a055eb0f5907f2685dab1204e14b",
      "to": null,
      "contractAddress": "0x7218612f2bd3ca5676e1b30384558244358c4188",
      "daFootprintGasScalar": "0x138",
      "l1BaseFeeScalar": "0x44d",
      "l1BlobBaseFee": "0x3b8b194",
      "l1BlobBaseFeeScalar": "0xa118b",
      "l1Fee": "0x162704858",
      "l1GasPrice": "0x3dce6003",
      "l1GasUsed": "0x4d89"
    },
    {
      "status": "0x1",
      "cumulativeGasUsed": "0x6d8a63",
      "logs": [],
      "logsBloom": "0x00000000000000000000000000000000000000000000000000000000000000000000000000000000000000000000000000000000000000000000000000000000000000000000000000000000000000000000000000000000000000000000000000000000000000000000000000000000000000000000000000000000000000000000000000000000000000000000000000000000000000000000000000000000000000000000000000000000000000000000000000000000000000000000000000000000000000000000000000000000000000000000000000000000000000000000000000000000000000000000000000000000000000000000000000000000",
      "type": "0x2",
      "transactionHash": "0xd45292d8bac84de0a09c3ebbe6f21f22d3bdf93af62d6cfde30ce1d733c64058",
      "transactionIndex": "0xc",
      "blockHash": "0x8e49e119fc51545ef9f9fe09adbff6ba9b13bf89957c97d4773532b81b206849",
      "blockNumber": "0x2314e93",
      "gasUsed": "0xdab32",
      "effectiveGasPrice": "0x124f80",
      "blobGasUsed": "0xbef68",
      "from": "0x027822307511a055eb0f5907f2685dab1204e14b",
      "to": null,
      "contractAddress": "0xc4cda3a0913558b5b8cbaa2b6a6a6dc5444fc2bf",
      "daFootprintGasScalar": "0x138",
      "l1BaseFeeScalar": "0x44d",
      "l1BlobBaseFee": "0x3b8b194",
      "l1BlobBaseFeeScalar": "0xa118b",
      "l1Fee": "0x162704858",
      "l1GasPrice": "0x3dce6003",
      "l1GasUsed": "0x9cbe"
    },
    {
      "status": "0x1",
      "cumulativeGasUsed": "0x7ee495",
      "logs": [],
      "logsBloom": "0x00000000000000000000000000000000000000000000000000000000000000000000000000000000000000000000000000000000000000000000000000000000000000000000000000000000000000000000000000000000000000000000000000000000000000000000000000000000000000000000000000000000000000000000000000000000000000000000000000000000000000000000000000000000000000000000000000000000000000000000000000000000000000000000000000000000000000000000000000000000000000000000000000000000000000000000000000000000000000000000000000000000000000000000000000000000",
      "type": "0x2",
      "transactionHash": "0x20f8e922a3db812f1a0c7efe77d1b45b4b957c1a48f153621497558f8edb4a81",
      "transactionIndex": "0xd",
      "blockHash": "0x8e49e119fc51545ef9f9fe09adbff6ba9b13bf89957c97d4773532b81b206849",
      "blockNumber": "0x2314e93",
      "gasUsed": "0x115a32",
      "effectiveGasPrice": "0x124f80",
      "blobGasUsed": "0xe1c60",
      "from": "0x027822307511a055eb0f5907f2685dab1204e14b",
      "to": null,
      "contractAddress": "0x3c2e012c77cf48dddc7e7368bf87ba823db66ef8",
      "daFootprintGasScalar": "0x138",
      "l1BaseFeeScalar": "0x44d",
      "l1BlobBaseFee": "0x3b8b194",
      "l1BlobBaseFeeScalar": "0xa118b",
      "l1Fee": "0x162704858",
      "l1GasPrice": "0x3dce6003",
      "l1GasUsed": "0xb94a"
    },
    {
      "status": "0x1",
      "cumulativeGasUsed": "0x7f9116",
      "logs": [],
      "logsBloom": "0x00000000000000000000000000000000000000000000000000000000000000000000000000000000000000000000000000000000000000000000000000000000000000000000000000000000000000000000000000000000000000000000000000000000000000000000000000000000000000000000000000000000000000000000000000000000000000000000000000000000000000000000000000000000000000000000000000000000000000000000000000000000000000000000000000000000000000000000000000000000000000000000000000000000000000000000000000000000000000000000000000000000000000000000000000000000",
      "type": "0x2",
      "transactionHash": "0x9cabfe86e848d399fd86dba5eb789a8047f7b27de839ade48038e03ddccff9c8",
      "transactionIndex": "0xe",
      "blockHash": "0x8e49e119fc51545ef9f9fe09adbff6ba9b13bf89957c97d4773532b81b206849",
      "blockNumber": "0x2314e93",
      "gasUsed": "0xac81",
      "effectiveGasPrice": "0x124f80",
      "blobGasUsed": "0x79e0",
      "from": "0x027822307511a055eb0f5907f2685dab1204e14b",
      "to": "0xc4cda3a0913558b5b8cbaa2b6a6a6dc5444fc2bf",
      "contractAddress": null,
      "daFootprintGasScalar": "0x138",
      "l1BaseFeeScalar": "0x44d",
      "l1BlobBaseFee": "0x3b8b194",
      "l1BlobBaseFeeScalar": "0xa118b",
      "l1Fee": "0x162704858",
      "l1GasPrice": "0x3dce6003",
      "l1GasUsed": "0x640"
    },
    {
      "status": "0x1",
      "cumulativeGasUsed": "0x81075b",
      "logs": [
        {
          "address": "0x3c2e012c77cf48dddc7e7368bf87ba823db66ef8",
          "topics": [
            "0x48883863e7ab83924fce34514467de88ad716c7d166f77fdbc804412b34c0762",
            "0x8750de1d37121f350cba3125ae50f1a56ab8440fe59938ca158120aa752fd72f"
          ],
          "data": "0x000000000000000000000000000000000000000000000000000000006975fbfa00000000000000000000000000000000000000000000000000000000699d88fa",
          "blockHash": "0x8e49e119fc51545ef9f9fe09adbff6ba9b13bf89957c97d4773532b81b206849",
          "blockNumber": "0x2314e93",
          "blockTimestamp": "0x6975fc06",
          "transactionHash": "0x5759bb5a71ee6f1aa1fce3e88c27ac61913055348de0e9d033dc2c5a98291255",
          "transactionIndex": "0xf",
          "logIndex": "0xae",
          "removed": false
        }
      ],
      "logsBloom": "0x00000000000000000000000000000000000000000000000000000000000000000000000000000000000000000000000000000000000000000000000080000000000000000000000000000000000000000000000000000020000000000000080000000000000000000004020000000000000000000000000000000000000000000000000000000010000000000000000000000000000000000000000000000040000000000000000000000000000000000000000000000000000080000000000000000000000000000000000000000000000000000000000000000000000000000000000000000000000000000000000000000000000000008000000000000000",
      "type": "0x2",
      "transactionHash": "0x5759bb5a71ee6f1aa1fce3e88c27ac61913055348de0e9d033dc2c5a98291255",
      "transactionIndex": "0xf",
      "blockHash": "0x8e49e119fc51545ef9f9fe09adbff6ba9b13bf89957c97d4773532b81b206849",
      "blockNumber": "0x2314e93",
      "gasUsed": "0x17645",
      "effectiveGasPrice": "0x124f80",
      "blobGasUsed": "0x7b18",
      "from": "0x027822307511a055eb0f5907f2685dab1204e14b",
      "to": "0x3c2e012c77cf48dddc7e7368bf87ba823db66ef8",
      "contractAddress": null,
      "daFootprintGasScalar": "0x138",
      "l1BaseFeeScalar": "0x44d",
      "l1BlobBaseFee": "0x3b8b194",
      "l1BlobBaseFeeScalar": "0xa118b",
      "l1Fee": "0x162704858",
      "l1GasPrice": "0x3dce6003",
      "l1GasUsed": "0x654"
    },
    {
      "status": "0x1",
      "cumulativeGasUsed": "0x8214fa",
      "logs": [],
      "logsBloom": "0x00000000000000000000000000000000000000000000000000000000000000000000000000000000000000000000000000000000000000000000000000000000000000000000000000000000000000000000000000000000000000000000000000000000000000000000000000000000000000000000000000000000000000000000000000000000000000000000000000000000000000000000000000000000000000000000000000000000000000000000000000000000000000000000000000000000000000000000000000000000000000000000000000000000000000000000000000000000000000000000000000000000000000000000000000000000",
      "type": "0x2",
      "transactionHash": "0xb6ef243125dabaef118bc8da005deb7e495e25cffaa29c7111ec3ce6b670d548",
      "transactionIndex": "0x10",
      "blockHash": "0x8e49e119fc51545ef9f9fe09adbff6ba9b13bf89957c97d4773532b81b206849",
      "blockNumber": "0x2314e93",
      "gasUsed": "0x10d9f",
      "effectiveGasPrice": "0x124f80",
      "blobGasUsed": "0x8268",
      "from": "0x027822307511a055eb0f5907f2685dab1204e14b",
      "to": "0x3c2e012c77cf48dddc7e7368bf87ba823db66ef8",
      "contractAddress": null,
      "daFootprintGasScalar": "0x138",
      "l1BaseFeeScalar": "0x44d",
      "l1BlobBaseFee": "0x3b8b194",
      "l1BlobBaseFeeScalar": "0xa118b",
      "l1Fee": "0x162704858",
      "l1GasPrice": "0x3dce6003",
      "l1GasUsed": "0x6b2"
    },
    {
      "status": "0x1",
      "cumulativeGasUsed": "0x8334c5",
      "logs": [],
      "logsBloom": "0x00000000000000000000000000000000000000000000000000000000000000000000000000000000000000000000000000000000000000000000000000000000000000000000000000000000000000000000000000000000000000000000000000000000000000000000000000000000000000000000000000000000000000000000000000000000000000000000000000000000000000000000000000000000000000000000000000000000000000000000000000000000000000000000000000000000000000000000000000000000000000000000000000000000000000000000000000000000000000000000000000000000000000000000000000000000",
      "type": "0x2",
      "transactionHash": "0x47c601f53f1b40602c96938110b2dc626f9c9f0859348199b44e0b5deb659a4e",
      "transactionIndex": "0x11",
      "blockHash": "0x8e49e119fc51545ef9f9fe09adbff6ba9b13bf89957c97d4773532b81b206849",
      "blockNumber": "0x2314e93",
      "gasUsed": "0x11fcb",
      "effectiveGasPrice": "0x124f80",
      "blobGasUsed": "0x9108",
      "from": "0x027822307511a055eb0f5907f2685dab1204e14b",
      "to": "0x3c2e012c77cf48dddc7e7368bf87ba823db66ef8",
      "contractAddress": null,
      "daFootprintGasScalar": "0x138",
      "l1BaseFeeScalar": "0x44d",
      "l1BlobBaseFee": "0x3b8b194",
      "l1BlobBaseFeeScalar": "0xa118b",
      "l1Fee": "0x162704858",
      "l1GasPrice": "0x3dce6003",
      "l1GasUsed": "0x77b"
    },
    {
      "status": "0x1",
      "cumulativeGasUsed": "0x83ae82",
      "logs": [],
      "logsBloom": "0x00000000000000000000000000000000000000000000000000000000000000000000000000000000000000000000000000000000000000000000000000000000000000000000000000000000000000000000000000000000000000000000000000000000000000000000000000000000000000000000000000000000000000000000000000000000000000000000000000000000000000000000000000000000000000000000000000000000000000000000000000000000000000000000000000000000000000000000000000000000000000000000000000000000000000000000000000000000000000000000000000000000000000000000000000000000",
      "type": "0x2",
      "transactionHash": "0x32e526f29f04ed11d28dc6dbd30f1c046567a692d6241c8d154b83bee1dc0312",
      "transactionIndex": "0x12",
      "blockHash": "0x8e49e119fc51545ef9f9fe09adbff6ba9b13bf89957c97d4773532b81b206849",
      "blockNumber": "0x2314e93",
      "gasUsed": "0x79bd",
      "effectiveGasPrice": "0x124f80",
      "blobGasUsed": "0x79e0",
      "from": "0x027822307511a055eb0f5907f2685dab1204e14b",
      "to": "0x3c2e012c77cf48dddc7e7368bf87ba823db66ef8",
      "contractAddress": null,
      "daFootprintGasScalar": "0x138",
      "l1BaseFeeScalar": "0x44d",
      "l1BlobBaseFee": "0x3b8b194",
      "l1BlobBaseFeeScalar": "0xa118b",
      "l1Fee": "0x162704858",
      "l1GasPrice": "0x3dce6003",
      "l1GasUsed": "0x640"
    },
    {
      "status": "0x1",
      "cumulativeGasUsed": "0x841d9e",
      "logs": [
        {
          "address": "0x3c2e012c77cf48dddc7e7368bf87ba823db66ef8",
          "topics": [
            "0xf8ccb027dfcd135e000e9d45e6cc2d662578a8825d4c45b5e32e0adf67e79ec6",
            "0x000000000000000000000000027822307511a055eb0f5907f2685dab1204e14b",
            "0x000000000000000000000000d264be80817eafac5f7575698913fec4cb38a016"
          ],
          "data": "0x",
          "blockHash": "0x8e49e119fc51545ef9f9fe09adbff6ba9b13bf89957c97d4773532b81b206849",
          "blockNumber": "0x2314e93",
          "blockTimestamp": "0x6975fc06",
          "transactionHash": "0xc65b013f0e3f47ff5bf57ec058d296aed9f1dec477b4711ec70dc5ea7802345b",
          "transactionIndex": "0x13",
          "logIndex": "0xaf",
          "removed": false
        }
      ],
      "logsBloom": "0x00000000000000000000000000000000000008000000000000000000010000000000000000000000000000000000000000000000000000000000000000000000000000000000000000000000000000000000000000001000000000000000000000000000000000000000020000000000000000000000000000000000000000000000000000000000000000000000000000000000000000000000000000000040000000000000000000000000000000000000000000000000000080000010000040000000002000000000000000100000000000000000000000000000000008000000000000000000000000000000000002000000000000000000000000000000",
      "type": "0x2",
      "transactionHash": "0xc65b013f0e3f47ff5bf57ec058d296aed9f1dec477b4711ec70dc5ea7802345b",
      "transactionIndex": "0x13",
      "blockHash": "0x8e49e119fc51545ef9f9fe09adbff6ba9b13bf89957c97d4773532b81b206849",
      "blockNumber": "0x2314e93",
      "gasUsed": "0x6f1c",
      "effectiveGasPrice": "0x124f80",
      "blobGasUsed": "0x79e0",
      "from": "0x027822307511a055eb0f5907f2685dab1204e14b",
      "to": "0x3c2e012c77cf48dddc7e7368bf87ba823db66ef8",
      "contractAddress": null,
      "daFootprintGasScalar": "0x138",
      "l1BaseFeeScalar": "0x44d",
      "l1BlobBaseFee": "0x3b8b194",
      "l1BlobBaseFeeScalar": "0xa118b",
      "l1Fee": "0x162704858",
      "l1GasPrice": "0x3dce6003",
      "l1GasUsed": "0x640"
    }
  ],
  "libraries": [],
  "pending": [],
  "returns": {},
  "timestamp": 1769339966851,
  "chain": 84532,
  "commit": "a720dfe"
}