{
  "transactions": [
    {
      "hash": "0x50d573714cec1a07a3471948be922faa09129799c45066fa592d6d8aeffaf1bb",
      "transactionType": "CREATE",
      "contractName": "TestUSDC",
      "contractAddress": "0x18cdb13b9c0ab2928e218da2e0f6e3fbb9d7367a",
      "function": null,
      "arguments": [
        "1000000000000"
      ],
      "transaction": {
        "from": "0xef4db09d536439831fecaa33fe4250168976535e",
        "gas": "0xa0120",
        "value": "0x0",
        "input": "0x60803461019a57601f61080438819003918201601f19168301916001600160401b0383118484101761019e5780849260209460405283398101031261019a57516100495f546101b2565b601f8111610153575b507f54657374205553444300000000000000000000000000000000000000000000125f5560018054610083906101b2565b601f811161010c575b826008635553444360e01b01600155600660ff196002541617600255335f52600460205260405f206100bf8282546101ea565b90556100cd816003546101ea565b6003556040519081525f7fddf252ad1be2c89b69c2b068fc378daa952ba7f163c4a11628f55a4df523b3ef60203393a36040516105f8908161020c8239f35b60015f52601f0160051c7fb10e2d527612073b26eecdfd717e6a320cf44b4afac2b0732d9fcbe2b7fa0cf6908101905b818110610149575061008c565b5f8155820161013c565b5f8052601f0160051c7f290decd9548b62a8d60345a988386fc84ba6bc95484008f6362f93160ef3e563908101905b81811061018f5750610052565b5f8155600101610182565b5f80fd5b634e487b7160e01b5f52604160045260245ffd5b90600182811c921680156101e0575b60208310146101cc57565b634e487b7160e01b5f52602260045260245ffd5b91607f16916101c1565b919082018092116101f757565b634e487b7160e01b5f52601160045260245ffdfe6080604090808252600480361015610015575f80fd5b5f3560e01c91826306fdde03146103a957508163095ea7b31461033b57816318160ddd1461031d57816323b872dd14610277578163313ce5671461025657816370a082311461022157816395d89b41146100ff57508063a9059cbb146100cf5763dd62ed3e14610083575f80fd5b346100cb57806003193601126100cb5760209061009e6104c5565b6100a66104db565b9060018060a01b038091165f5260058452825f2091165f528252805f20549051908152f35b5f80fd5b50346100cb57806003193601126100cb576020906100f86100ee6104c5565b6024359033610512565b5160018152f35b82346100cb575f3660031901126100cb578051905f60018054908160011c9060018316928315610217575b6020938484108114610204578388529081156101e85750600114610192575b505050829003601f01601f191682019267ffffffffffffffff84118385101761017f575082918261017b92528261047e565b0390f35b604190634e487b7160e01b5f525260245ffd5b60015f908152929350837fb10e2d527612073b26eecdfd717e6a320cf44b4afac2b0732d9fcbe2b7fa0cf65b8385106101d45750505050830101848080610149565b8054888601830152930192849082016101be565b60ff1916878501525050151560051b8401019050848080610149565b602289634e487b7160e01b5f525260245ffd5b91607f169161012a565b82346100cb5760203660031901126100cb576020916001600160a01b036102466104c5565b165f528252805f20549051908152f35b82346100cb575f3660031901126100cb5760209060ff600254169051908152f35b82346100cb5760603660031901126100cb576102916104c5565b9061029a6104db565b6044359060018060a01b03841693845f5260209460058652845f20335f528652845f2054968488106102ee57506102d6846100f89697986104f1565b905f5260058752855f20335f528752855f2055610512565b855162461bcd60e51b81529081018790526009602482015268616c6c6f77616e636560b81b6044820152606490fd5b82346100cb575f3660031901126100cb576020906003549051908152f35b82346100cb57806003193601126100cb576020906103576104c5565b602435335f5260058452825f209160018060a01b031691825f52845280835f205582519081527f8c5be1e5ebec7d5bd14f71427d1e84f3dd0314c0f7b2291e5b200ac8c7c3b925843392a35160018152f35b83346100cb575f3660031901126100cb575f805460018160011c9060018316928315610474575b6020938484108114610204578388529081156101e8575060011461042057505050829003601f01601f191682019267ffffffffffffffff84118385101761017f575082918261017b92528261047e565b5f808052929350837f290decd9548b62a8d60345a988386fc84ba6bc95484008f6362f93160ef3e5635b8385106104605750505050830101848080610149565b80548886018301529301928490820161044a565b91607f16916103d0565b602080825282518183018190529093925f5b8281106104b157505060409293505f838284010152601f8019910116010190565b818101860151848201604001528501610490565b600435906001600160a01b03821682036100cb57565b602435906001600160a01b03821682036100cb57565b919082039182116104fe57565b634e487b7160e01b5f52601160045260245ffd5b60018060a01b0380911691825f5260046020528360405f20541061059357825f52600460205260405f206105478582546104f1565b90551691825f52600460205260405f208054918083018093116104fe577fddf252ad1be2c89b69c2b068fc378daa952ba7f163c4a11628f55a4df523b3ef9260209255604051908152a3565b60405162461bcd60e51b815260206004820152600760248201526662616c616e636560c81b6044820152606490fdfea26469706673582212204549e73f812fef3b894c8c58ab1333f341cc7988b4aa81b00c97653a834f334d64736f6c63430008180033000000000000000000000000000000000000000000000000000000e8d4a51000",
        "nonce": "0x4a",
        "chainId": "0x14a34"
      },
      "additionalContracts": [],
      "isFixedGasLimit": false
    },
    {
      "hash": "0x8501de3bc2aca0e09812d1a86394232f7cea614189070ae35ce73cfd1e18e2f6",
      "transactionType": "CREATE",
      "contractName": "ZKTReceiptNFT",
      "contractAddress": "0xaf1ea5e655ecc4befe11e15e9e97e55fdd726f7e",
      "function": null,
      "arguments": [
        "0x0000000000000000000000000000000000000000"
      ],
      "transaction": {
        "from": "0xef4db09d536439831fecaa33fe4250168976535e",
        "gas": "0x1251c1",
        "value": "0x0",
        "input": "0x6080346200016e57601f6200108338819003918201601f19168301916001600160401b0383118484101762000172578084926020946040528339810103126200016e57516001600160a01b038116908190036200016e57620000625f5462000186565b601f811162000124575b507f5a4b5420526563656970740000000000000000000000000000000000000000165f55600180546200009f9062000186565b601f8111620000da575b600a642d25aa16a960d91b01600155600280546001600160a01b03191684179055604051610ec19081620001c28239f35b60015f52601f0160051c7fb10e2d527612073b26eecdfd717e6a320cf44b4afac2b0732d9fcbe2b7fa0cf6908101905b818110620001195750620000a9565b5f815582016200010a565b5f8052601f0160051c7f290decd9548b62a8d60345a988386fc84ba6bc95484008f6362f93160ef3e563908101905b8181106200016257506200006c565b5f815560010162000153565b5f80fd5b634e487b7160e01b5f52604160045260245ffd5b90600182811c92168015620001b6575b6020831014620001a257565b634e487b7160e01b5f52602260045260245ffd5b91607f16916200019656fe6080806040526004361015610012575f80fd5b5f3560e01c90816306fdde0314610acf575080630754617214610aa7578063095ea7b314610a885780630f7ee1ec14610a1457806318160ddd146109f757806323b872dd146109f257806342842e0e146109f25780636352211e146109b557806370a0823114610943578063837c00e81461072b57806395d89b4114610661578063a22cb46514610638578063b88d4fde146105e5578063bda6ad10146102dc578063c87b56dd146101825763fca3b5aa146100cc575f80fd5b3461017e57602036600319011261017e576100e5610cb5565b600254906001600160a01b03908183166101445716908115610111576001600160a01b03191617600255005b60405162461bcd60e51b815260206004820152600b60248201526a6d696e746572207a65726f60a81b6044820152606490fd5b60405162461bcd60e51b81526020600482015260126024820152711b5a5b9d195c88185b1c9958591e481cd95d60721b6044820152606490fd5b5f80fd5b3461017e5760208060031936011261017e5760043590815f52600581526101b660018060a01b0360405f2054161515610d5d565b60405191604083019280841067ffffffffffffffff8511176102c85761020e93604052600781528281019166697066733a2f2f60c81b83525f5260048352600360405f20019160405194859251809286850190610c6f565b81015f90835461021d81610b73565b94600191876001821691825f146102a7575050600114610266575b50505061024e925003601f198101845283610bab565b610262604051928284938452830190610c90565b0390f35b8693505f9592919552825f20945f955b83871061028e57505061024e94500101858080610238565b8054838801860152939095019487945086938101610276565b925094505061024e95915060ff191683830152801515020101858080610238565b634e487b7160e01b5f52604160045260245ffd5b3461017e5760a036600319011261017e576102f5610cb5565b60643567ffffffffffffffff811161017e57610315903690600401610cfe565b909160843592831515840361017e576002546001600160a01b03939061033e9085163314610d9d565b838316156105b657600354935f1985146105a25760018501600355600185015f52600560205260405f208185166bffffffffffffffffffffffff60a01b8254161790558084165f52600660205260405f20805490600182018092116105a257556103a9368385610e25565b6020815191012095604051968760a081011067ffffffffffffffff60a08a0111176102c85760a088016040526024358852602088019060443582526040890183151581526103f8368789610e25565b9160608b0192835260808b0152600189015f52600460205260405f20928a518455516001840155600283019051151560ff801983541691161790555197885167ffffffffffffffff81116102c8576020996104638261045a6003870154610b73565b60038701610dd6565b8a90601f831160011461050f57926104bb836004946080947f8fef384f4262cb721410d7333492c140d5dded53f0ad2a698f864f3c8de6386d9a9998975f92610504575b50508160011b915f199060031b1c19161790565b60038501555b01519101556104f6604051928392604435845215158a8401526060604084015260243597169560018901956060840191610e6b565b0390a4600160405191018152f35b015190508f806104a7565b90600385015f528b5f20915f5b601f198516811061058b5750836080937f8fef384f4262cb721410d7333492c140d5dded53f0ad2a698f864f3c8de6386d9998979693600193600497601f19811610610573575b505050811b0160038501556104c1565b01515f1960f88460031b161c191690558e8080610563565b91928d60018192868501518155019401920161051c565b634e487b7160e01b5f52601160045260245ffd5b60405162461bcd60e51b8152602060048201526007602482015266746f207a65726f60c81b6044820152606490fd5b3461017e57608036600319011261017e576105fe610cb5565b506024356001600160a01b0381160361017e5760643567ffffffffffffffff811161017e57610631903690600401610cfe565b5050610d2c565b3461017e57604036600319011261017e57610651610cb5565b5060243580151514610d2c575f80fd5b3461017e575f36600319011261017e576040515f6001826001549261068584610b73565b92838352602094856001821691825f1461070b5750506001146106b0575b5061024e92500383610bab565b84915060015f527fb10e2d527612073b26eecdfd717e6a320cf44b4afac2b0732d9fcbe2b7fa0cf6905f915b8583106106f357505061024e9350820101856106a3565b805483890185015287945086939092019181016106dc565b60ff19168582015261024e95151560051b85010192508791506106a39050565b3461017e57604036600319011261017e5760043567ffffffffffffffff60243581811161017e57610760903690600401610cfe565b6002546001600160a01b03929061077a9084163314610d9d565b845f526107946020936005855260405f2054161515610d5d565b811561091257845f52600483526107b0600360405f2001610bcd565b93855f5260048452600360405f20019083116102c8576107da836107d48354610b73565b83610dd6565b5f601f8411600114610886579261087692610869959261083283807fd76f0e7ae448bd46652cfdbba370527ab0e407e1e18ca33c797aca4ac84c30ff9a985f9161087b575b508160011b915f199060031b1c19161790565b90555b610840368383610e25565b838151910120885f5260048452600460405f200155604051958695604087526040870190610c90565b9285840390860152610e6b565b0390a2005b90508401358c61081f565b601f19841690825f52855f20915f5b8181106108fb575092859261087695927fd76f0e7ae448bd46652cfdbba370527ab0e407e1e18ca33c797aca4ac84c30ff99976108699996106108e2575b5050600183811b019055610835565b8301355f19600386901b60f8161c1916905589806108d3565b919287600181928689013581550194019201610895565b60405162461bcd60e51b8152600481018490526009602482015268195b5c1d1e4810d25160ba1b6044820152606490fd5b3461017e57602036600319011261017e576001600160a01b03610964610cb5565b168015610981575f526006602052602060405f2054604051908152f35b60405162461bcd60e51b815260206004820152600c60248201526b7a65726f206164647265737360a01b6044820152606490fd5b3461017e57602036600319011261017e576004355f526005602052602060018060a01b0360405f2054166109ea811515610d5d565b604051908152f35b610ccb565b3461017e575f36600319011261017e576020600354604051908152f35b3461017e57602036600319011261017e576004355f52600460205260405f208054600182015491610a7e60ff600283015416916004610a5560038301610bcd565b91015492604051958695865260208601521515604085015260a0606085015260a0840190610c90565b9060808301520390f35b3461017e57604036600319011261017e57610aa1610cb5565b50610d2c565b3461017e575f36600319011261017e576002546040516001600160a01b039091168152602090f35b3461017e575f36600319011261017e575f80549082610aed83610b73565b91828252602093600190856001821691825f1461070b575050600114610b1a575061024e92500383610bab565b5f808052859250907f290decd9548b62a8d60345a988386fc84ba6bc95484008f6362f93160ef3e5635b858310610b5b57505061024e9350820101856106a3565b80548389018501528794508693909201918101610b44565b90600182811c92168015610ba1575b6020831014610b8d57565b634e487b7160e01b5f52602260045260245ffd5b91607f1691610b82565b90601f8019910116810190811067ffffffffffffffff8211176102c857604052565b9060405191825f8254610bdf81610b73565b908184526020946001916001811690815f14610c4d5750600114610c0f575b505050610c0d92500383610bab565b565b5f90815285812095935091905b818310610c35575050610c0d93508201015f8080610bfe565b85548884018501529485019487945091830191610c1c565b92505050610c0d94925060ff191682840152151560051b8201015f8080610bfe565b5f5b838110610c805750505f910152565b8181015183820152602001610c71565b90602091610ca981518092818552858086019101610c6f565b601f01601f1916010190565b600435906001600160a01b038216820361017e57565b3461017e57606036600319011261017e576001600160a01b036004358181160361017e5760243590811614610d2c575f80fd5b9181601f8401121561017e5782359167ffffffffffffffff831161017e576020838186019501011161017e57565b60405162461bcd60e51b815260206004820152600960248201526814d3d5531093d5539160ba1b6044820152606490fd5b15610d6457565b60405162461bcd60e51b81526020600482015260116024820152703737b732bc34b9ba32b73a103a37b5b2b760791b6044820152606490fd5b15610da457565b60405162461bcd60e51b815260206004820152600a6024820152693737ba1036b4b73a32b960b11b6044820152606490fd5b601f8211610de357505050565b5f5260205f20906020601f840160051c83019310610e1b575b601f0160051c01905b818110610e10575050565b5f8155600101610e05565b9091508190610dfc565b92919267ffffffffffffffff82116102c85760405191610e4f601f8201601f191660200184610bab565b82948184528183011161017e578281602093845f960137010152565b908060209392818452848401375f828201840152601f01601f191601019056fea264697066735822122044be373839b67d35886d7175df27bf0be4701a38da189c8f3071d080d8e76cc464736f6c634300081800330000000000000000000000000000000000000000000000000000000000000000",
        "nonce": "0x4b",
        "chainId": "0x14a34"
      },
      "additionalContracts": [],
      "isFixedGasLimit": false
    },
    {
      "hash": "0xa47f2adc711773c19661a095019e6cc1c44860c96da1b19ab666a76959c54d17",
      "transactionType": "CREATE",
      "contractName": "ZKTCampaignPool",
      "contractAddress": "0x7fc063f88283530af91e4fe846f55e4a00d77998",
      "function": null,
      "arguments": [
        "0xeF4DB09D536439831FEcaA33fE4250168976535E",
        "0x18CdB13b9c0aB2928e218dA2e0f6e3fbB9D7367a",
        "0xAf1EA5E655ECc4BEFE11e15E9E97E55fDd726f7e"
      ],
      "transaction": {
        "from": "0xef4db09d536439831fecaa33fe4250168976535e",
        "gas": "0x1619ee",
        "value": "0x0",
        "input": "0x60c0346200018257601f6200145b38819003918201601f191683019291906001600160401b0384118385101762000186578160609284926040968752833981010312620001825762000051816200019a565b6200006c8362000064602085016200019a565b93016200019a565b6001600160a01b0391821692909190831562000151578116918215620001205716918215620000f1575f80546001600160a01b03191691909117905560805260a052516112ab9081620001b0823960805181818161011a015281816102440152610681015260a0518181816103cf0152818161070c01528181610aca0152610e050152f35b835162461bcd60e51b81526020600482015260086024820152676e6674207a65726f60c01b6044820152606490fd5b845162461bcd60e51b815260206004820152600a602482015269746f6b656e207a65726f60b01b6044820152606490fd5b845162461bcd60e51b815260206004820152600a60248201526961646d696e207a65726f60b01b6044820152606490fd5b5f80fd5b634e487b7160e01b5f52604160045260245ffd5b51906001600160a01b0382168203620001825756fe60406080815260049081361015610014575f80fd5b5f915f3560e01c90816311e4506c14610f0357816319e55d5c14610e795781631a4686ac14610db65781631bde12ef14610bee5781633f4ba83a14610b97578163417cc5e814610b6a57816342f67a1314610a5c5781635c975abb14610a3757816369f5e26d1461097b57816375829def146108cf57816376557a19146105d75781638456cb5914610577578163888c9a751461054f5781639e70aced1461051c5781639eca2f1e146104a75781639f19d361146103fe578163d7a7b899146103ba578163eb4f43f3146101a9578163f851a44014610181578163f8cff7441461014d575063fc0c546a14610107575f80fd5b34610149578160031936011261014957517f00000000000000000000000000000000000000000000000000000000000000006001600160a01b03168152602090f35b5080fd5b90503461017d578160031936011261017d5760209281839235825284528181206024358252845220549051908152f35b8280fd5b505034610149578160031936011261014957905490516001600160a01b039091168152602090f35b9190503461017d578060031936011261017d57813560243567ffffffffffffffff81116103b6576101dd903690850161108b565b909285549061020660ff60018060a01b03936101fc85821633146110bc565b60a01c16156111ea565b83875260209260018452818820805461022160ff82166110f4565b60ff8160101c1661037f5762ff00001916620100001781556001015495968615967f00000000000000000000000000000000000000000000000000000000000000008516928a5b818110610273578b80f35b61027e81838d6111c6565b35898d528489528c8188822091528952868d205480156103755780850290858204148c171561036257816127108f9204915260038a528d89898220541689519063a9059cbb60e01b8252888201528260248201528b81604481858d5af191821561035757600195949361031d8f948f93947fd776be6d27ffa3e0ad77b8e2d0446045520fccaf5dd1d0eaf6fc240db126d006959161032a575b50611237565b8b51908152a35b01610268565b61034a9150843d8611610350575b6103428183611177565b81019061121f565b5f610317565b503d610338565b8a51903d90823e3d90fd5b634e487b7160e01b8e526011865260248efd5b5050600190610324565b835162461bcd60e51b8152808a018790526011602482015270185b1c9958591e48191a5cd89d5c9cd959607a1b6044820152606490fd5b8480fd5b505034610149578160031936011261014957517f00000000000000000000000000000000000000000000000000000000000000006001600160a01b03168152602090f35b9190503461017d578060031936011261017d576024356001600160a01b0381811693918490036104a3576104369085541633146110bc565b8215610473573583526002602052808320600160ff1982541617905560036020528220906bffffffffffffffffffffffff60a01b82541617905580f35b6020606492519162461bcd60e51b8352820152600b60248201526a1e995c9bc81dd85b1b195d60aa1b6044820152fd5b5f80fd5b90503461017d57602036600319011261017d5760e0928291358152600160205220805490600181015460ff600360028401549301549385519582821615158752828260081c1615156020880152828260101c1615159087015260181c1615156060850152608084015260a083015260c0820152f35b90503461017d57602036600319011261017d5735825260036020908152918190205490516001600160a01b039091168152f35b90503461017d57602036600319011261017d5760209282913581526005845220549051908152f35b83346105d457806003193601126105d457805461059e336001600160a01b038316146110bc565b60ff60a01b1916600160a01b1781557f9e87fac88ff661f02d44f95383c817fece4bce600a3dab7a54406878b965e7528180a180f35b80fd5b9190503461017d578060031936011261017d5781359160249182359261060460ff875460a01c16156111ea565b84865260209260018452828720805461061f60ff82166110f4565b60ff8160181c166108a45760028201544210610874576003820154421161084a5760081c60ff16156108115785156107ea5783516323b872dd60e01b8152338382015230848201526044810187905288916001600160a01b03918781606481877f000000000000000000000000000000000000000000000000000000000000000088165af19081156107e0579260018998979592936106ca8d9b989560c49786916107c95750611237565b016106d68b825461112e565b905586519a8b958694630bda6ad160e41b8652339086015284015289604484015260a060648401528160a48401528160848401527f0000000000000000000000000000000000000000000000000000000000000000165af19485156107bf57869561076a575b50907fea322e94f28adbe50d17937d6786b189d187e04cbbfdd3ee0aaf9012ef1e74ac91519384523393a480f35b918091955082813d83116107b8575b6107838183611177565b810103126107b4579051937fea322e94f28adbe50d17937d6786b189d187e04cbbfdd3ee0aaf9012ef1e74ac61073c565b8580fd5b503d610779565b81513d88823e3d90fd5b61034a91508a3d8c11610350576103428183611177565b87513d86823e3d90fd5b509160649450519262461bcd60e51b845282840152820152637a65726f60e01b6044820152fd5b5060156064928585519362461bcd60e51b855284015282015274185b1b1bd8d85d1a5bdb881b9bdd081b1bd8dad959605a1b6044820152fd5b845162461bcd60e51b815280840187905260058186015264195b99195960da1b6044820152606490fd5b845162461bcd60e51b8152808401879052600b818601526a1b9bdd081cdd185c9d195960aa1b6044820152606490fd5b845162461bcd60e51b81528084018790526006818601526518db1bdcd95960d21b6044820152606490fd5b9190503461017d57602036600319011261017d576001600160a01b03823581811693908490036104a35784549182169261090a8433146110bc565b84156109475750506001600160a01b031916821783557ff8ccb027dfcd135e000e9d45e6cc2d662578a8825d4c45b5e32e0adf67e79ec68380a380f35b906020606492519162461bcd60e51b8352820152600e60248201526d6e65772061646d696e207a65726f60901b6044820152fd5b90503461017d57602036600319011261017d578035916109a560018060a01b0385541633146110bc565b8284526001602052808420918254916109c060ff84166110f4565b60ff8360181c16610a0357505063ff000000191663010000001790557f45ff51dd7cc3c27ad7a963f6f2ea2c1bf7f0a50b22146faa52bfed0458ddd5e48280a280f35b906020606492519162461bcd60e51b8352820152600e60248201526d185b1c9958591e4818db1bdcd95960921b6044820152fd5b50503461014957816003193601126101495760ff6020925460a01c1690519015158152f35b9190503461017d578060031936011261017d5767ffffffffffffffff9083833583811161014957610a90903690860161108b565b94909360243590811161017d57610aad909594953690830161105d565b94909160018060a01b0391610ac68386541633146110bc565b84927f000000000000000000000000000000000000000000000000000000000000000016925b818110610af7578580f35b610b0281838b6111c6565b35843b15610b665786868a92610b2a8b51948593849363106f801d60e31b85528a8501611199565b038183895af18015610b5c57908791610b48575b5050600101610aec565b610b519061114f565b6107b457855f610b3e565b88513d89823e3d90fd5b8680fd5b90503461017d57602036600319011261017d578160209360ff923581526002855220541690519015158152f35b83346105d457806003193601126105d4578054610bbe336001600160a01b038316146110bc565b60ff60a01b191681557fa45f47fdea8a1efdd9029a5691c7f759c32b7c698632b563573e155625d169338180a180f35b83833461014957606036600319011261014957823590602435604435610c1e60018060a01b0386541633146110bc565b83855260206001815260ff8487205416610d8b5782821115610d5a5742821115610d2a57835160e0810181811067ffffffffffffffff821117610d17577f48883863e7ab83924fce34514467de88ad716c7d166f77fdbc804412b34c07629697985085526001815260038789848401818152888501908282526060860183815260808701928484528b60a08901958c875260c08a01978c8952815260018b5220975115159260ff63ff00000062ff000061ff008c549451151560081b169451151560101b169451151560181b1694169063ffffffff1916171717178555516001850155516002840155519101558351928352820152a280f35b604189634e487b7160e01b5f525260245ffd5b8660649185519162461bcd60e51b8352820152600b60248201526a195b99081a5b881c185cdd60aa1b6044820152fd5b8660649185519162461bcd60e51b8352820152600c60248201526b696e76616c69642074696d6560a01b6044820152fd5b8660649185519162461bcd60e51b8352820152600660248201526565786973747360d01b6044820152fd5b919050346104a357806003193601126104a35760243567ffffffffffffffff81116104a357610de8903690840161105d565b5f549193916001600160a01b0390610e0390821633146110bc565b7f000000000000000000000000000000000000000000000000000000000000000016803b156104a357610e50945f809486519788958694859363106f801d60e31b85528035908501611199565b03925af1908115610e705750610e64575080f35b610e6e915061114f565b005b513d5f823e3d90fd5b9050346104a35760203660031901126104a357803590610ea360018060a01b035f541633146110bc565b815f526005602052612710835f205403610ed157505f908152600160205220805461ff001916610100179055005b606490602084519162461bcd60e51b8352820152600c60248201526b6d757374206265203130302560a01b6044820152fd5b82346104a35760603660031901126104a35781356024359060443593610f3360018060a01b035f541633146110bc565b815f526020916001835260ff855f2054610f4e8282166110f4565b60081c1661103257835f526002835260ff855f20541615610ffd57805f5260058352845f2054828452855f20855f528452855f20548103908111610fea57610f99876127109261112e565b825f526005855280875f205511610fbc575f528152825f20915f52525f20555f80f35b5060649184519162461bcd60e51b835282015260096024820152686f766572203130302560b81b6044820152fd5b601183634e487b7160e01b5f525260245ffd5b5060649184519162461bcd60e51b8352820152601060248201526f1b99dbc81b9bdd08185c1c1c9bdd995960821b6044820152fd5b5060649184519162461bcd60e51b835282015260066024820152651b1bd8dad95960d21b6044820152fd5b9181601f840112156104a35782359167ffffffffffffffff83116104a357602083818601950101116104a357565b9181601f840112156104a35782359167ffffffffffffffff83116104a3576020808501948460051b0101116104a357565b156110c357565b60405162461bcd60e51b81526020600482015260096024820152683737ba1030b236b4b760b91b6044820152606490fd5b156110fb57565b60405162461bcd60e51b815260206004820152600b60248201526a37379031b0b6b830b4b3b760a91b6044820152606490fd5b9190820180921161113b57565b634e487b7160e01b5f52601160045260245ffd5b67ffffffffffffffff811161116357604052565b634e487b7160e01b5f52604160045260245ffd5b90601f8019910116810190811067ffffffffffffffff82111761116357604052565b91926060938192845260406020850152816040850152848401375f828201840152601f01601f1916010190565b91908110156111d65760051b0190565b634e487b7160e01b5f52603260045260245ffd5b156111f157565b60405162461bcd60e51b81526020600482015260066024820152651c185d5cd95960d21b6044820152606490fd5b908160209103126104a3575180151581036104a35790565b1561123e57565b60405162461bcd60e51b815260206004820152600f60248201526e1d1c985b9cd9995c8819985a5b1959608a1b6044820152606490fdfea2646970667358221220f4d2de8c348dafd5dfdcd8295d3dcf212b9d511db17cad3a96525200362f9f8e64736f6c63430008180033000000000000000000000000ef4db09d536439831fecaa33fe4250168976535e00000000000000000000000018cdb13b9c0ab2928e218da2e0f6e3fbb9d7367a000000000000000000000000af1ea5e655ecc4befe11e15e9e97e55fdd726f7e",
        "nonce": "0x4c",
        "chainId": "0x14a34"
      },
      "additionalContracts": [],
      "isFixedGasLimit": false
    },
    {
      "hash": "0xfbc82f596bc989fa35f2f53c343a74f413847045670c8b3b00a3499a6461f23d",
      "transactionType": "CALL",
      "contractName": "ZKTReceiptNFT",
      "contractAddress": "0xaf1ea5e655ecc4befe11e15e9e97e55fdd726f7e",
      "function": "setMinter(address)",
      "arguments": [
        "0x7FC063F88283530af91E4Fe846f55E4a00d77998"
      ],
      "transaction": {
        "from": "0xef4db09d536439831fecaa33fe4250168976535e",
        "to": "0xaf1ea5e655ecc4befe11e15e9e97e55fdd726f7e",
        "gas": "0xee33",
        "value": "0x0",
        "input": "0xfca3b5aa0000000000000000000000007fc063f88283530af91e4fe846f55e4a00d77998",
        "nonce": "0x4d",
        "chainId": "0x14a34"
      },
      "additionalContracts": [],
      "isFixedGasLimit": false
    },
    {
      "hash": "0x1b352e30d4e090e0a163b1709c7a404ec0611879f9d1a40e47a63d5bb36df7e6",
      "transactionType": "CALL",
      "contractName": "ZKTCampaignPool",
      "contractAddress": "0x7fc063f88283530af91e4fe846f55e4a00d77998",
      "function": "createCampaign(bytes32,uint256,uint256)",
      "arguments": [
        "0x8750de1d37121f350cba3125ae50f1a56ab8440fe59938ca158120aa752fd72f",
        "1766765720",
        "1769357720"
      ],
      "transaction": {
        "from": "0xef4db09d536439831fecaa33fe4250168976535e",
        "to": "0x7fc063f88283530af91e4fe846f55e4a00d77998",
        "gas": "0x2018e",
        "value": "0x0",
        "input": "0x1bde12ef8750de1d37121f350cba3125ae50f1a56ab8440fe59938ca158120aa752fd72f00000000000000000000000000000000000000000000000000000000694eb4980000000000000000000000000000000000000000000000000000000069764198",
        "nonce": "0x4e",
        "chainId": "0x14a34"
      },
      "additionalContracts": [],
      "isFixedGasLimit": false
    },
    {
      "hash": "0x69f1bd92ec74d559afac1f8431f9cd9f2f4dad32f2eb282cd1dd687c2e84a07e",
      "transactionType": "CALL",
      "contractName": "ZKTCampaignPool",
      "contractAddress": "0x7fc063f88283530af91e4fe846f55e4a00d77998",
      "function": "approveNGO(bytes32,address)",
      "arguments": [
        "0xaf6f7411c9ec96f169dfcb406f5901e083e80e8c2e5275eb6aa86ae632d475d7",
        "0x2ca80Cc5e254C45E99281F670d694B22E6a90FC4"
      ],
      "transaction": {
        "from": "0xef4db09d536439831fecaa33fe4250168976535e",
        "to": "0x7fc063f88283530af91e4fe846f55e4a00d77998",
        "gas": "0x17464",
        "value": "0x0",
        "input": "0x9f19d361af6f7411c9ec96f169dfcb406f5901e083e80e8c2e5275eb6aa86ae632d475d70000000000000000000000002ca80cc5e254c45e99281f670d694b22e6a90fc4",
        "nonce": "0x4f",
        "chainId": "0x14a34"
      },
      "additionalContracts": [],
      "isFixedGasLimit": false
    },
    {
      "hash": "0xd4e439bc1bcc3fc088472d8b3c3e77e9449e6b7de1f3f3489819d470942fc42b",
      "transactionType": "CALL",
      "contractName": "ZKTCampaignPool",
      "contractAddress": "0x7fc063f88283530af91e4fe846f55e4a00d77998",
      "function": "setAllocation(bytes32,bytes32,uint256)",
      "arguments": [
        "0x8750de1d37121f350cba3125ae50f1a56ab8440fe59938ca158120aa752fd72f",
        "0xaf6f7411c9ec96f169dfcb406f5901e083e80e8c2e5275eb6aa86ae632d475d7",
        "10000"
      ],
      "transaction": {
        "from": "0xef4db09d536439831fecaa33fe4250168976535e",
        "to": "0x7fc063f88283530af91e4fe846f55e4a00d77998",
        "gas": "0x18d86",
        "value": "0x0",
        "input": "0x11e4506c8750de1d37121f350cba3125ae50f1a56ab8440fe59938ca158120aa752fd72faf6f7411c9ec96f169dfcb406f5901e083e80e8c2e5275eb6aa86ae632d475d70000000000000000000000000000000000000000000000000000000000002710",
        "nonce": "0x50",
        "chainId": "0x14a34"
      },
      "additionalContracts": [],
      "isFixedGasLimit": false
    },
    {
      "hash": "0x89953ff59b0ca9d48db5bfe4b55805ac4e0d8d83fcb8ad12a04ccfc8b6c81bf3",
      "transactionType": "CALL",
      "contractName": "ZKTCampaignPool",
      "contractAddress": "0x7fc063f88283530af91e4fe846f55e4a00d77998",
      "function": "lockAllocation(bytes32)",
      "arguments": [
        "0x8750de1d37121f350cba3125ae50f1a56ab8440fe59938ca158120aa752fd72f"
      ],
      "transaction": {
        "from": "0xef4db09d536439831fecaa33fe4250168976535e",
        "to": "0x7fc063f88283530af91e4fe846f55e4a00d77998",
        "gas": "0xa840",
        "value": "0x0",
        "input": "0x19e55d5c8750de1d37121f350cba3125ae50f1a56ab8440fe59938ca158120aa752fd72f",
        "nonce": "0x51",
        "chainId": "0x14a34"
      },
      "additionalContracts": [],
      "isFixedGasLimit": false
    },
    {
      "hash": "0x19cccf7f1a2929c558f5b6e6a3de305231c0f5dc77f3d618a6e0a6ff4cf7f26d",
      "transactionType": "CALL",
      "contractName": "ZKTCampaignPool",
      "contractAddress": "0x7fc063f88283530af91e4fe846f55e4a00d77998",
      "function": "transferAdmin(address)",
      "arguments": [
        "0xD264BE80817EAfaC5F7575698913FEc4cB38a016"
      ],
      "transaction": {
        "from": "0xef4db09d536439831fecaa33fe4250168976535e",
        "to": "0x7fc063f88283530af91e4fe846f55e4a00d77998",
        "gas": "0x9991",
        "value": "0x0",
        "input": "0x75829def000000000000000000000000d264be80817eafac5f7575698913fec4cb38a016",
        "nonce": "0x52",
        "chainId": "0x14a34"
      },
      "additionalContracts": [],
      "isFixedGasLimit": false
    }
  ],
  "receipts": [
    {
      "status": "0x1",
      "cumulativeGasUsed": "0x8668b",
      "logs": [
        {
          "address": "0x18cdb13b9c0ab2928e218da2e0f6e3fbb9d7367a",
          "topics": [
            "0xddf252ad1be2c89b69c2b068fc378daa952ba7f163c4a11628f55a4df523b3ef",
            "0x0000000000000000000000000000000000000000000000000000000000000000",
            "0x000000000000000000000000ef4db09d536439831fecaa33fe4250168976535e"
          ],
          "data": "0x000000000000000000000000000000000000000000000000000000e8d4a51000",
          "blockHash": "0xb77aa6774714fa7ea49909cba4f9be60e72b6fb204f26d8735d2e56ffab16c1d",
          "blockNumber": "0x21daae2",
          "blockTimestamp": "0x694eb4a4",
          "transactionHash": "0x50d573714cec1a07a3471948be922faa09129799c45066fa592d6d8aeffaf1bb",
          "transactionIndex": "0x1",
          "logIndex": "0x0",
          "removed": false
        }
      ],
      "logsBloom": "0x00000000000000000000000400000020000000000000000000000000000000000000000000000000000000000000000000000000000000000000000000000000000000000000000000000008000000000000000000000000000000000000000000000000020000000000000000000800000000000000000000020010000000000000000000000000000400000000000000000040000000000000000000000000000000000000000000000000000000000000000000000000000000000008000000000002000000000000000000000000000000000000000000000000000020000000000000000000000000000000000000000000000000000000000000000000",
      "type": "0x2",
      "transactionHash": "0x50d573714cec1a07a3471948be922faa09129799c45066fa592d6d8aeffaf1bb",
      "transactionIndex": "0x1",
      "blockHash": "0xb77aa6774714fa7ea49909cba4f9be60e72b6fb204f26d8735d2e56ffab16c1d",
      "blockNumber": "0x21daae2",
      "gasUsed": "0x7b219",
      "effectiveGasPrice": "0x124f80",
      "blobGasUsed": "0x622f8",
      "from": "0xef4db09d536439831fecaa33fe4250168976535e",
      "to": null,
      "contractAddress": "0x18cdb13b9c0ab2928e218da2e0f6e3fbb9d7367a",
      "daFootprintGasScalar": "0x138",
      "l1BaseFeeScalar": "0x44d",
      "l1BlobBaseFee": "0x8e4f80f1",
      "l1BlobBaseFeeScalar": "0xa118b",
      "l1Fee": "0x1d8dd72cd06",
      "l1GasPrice": "0x2c",
      "l1GasUsed": "0x5091"
    },
    {
      "status": "0x1",
      "cumulativeGasUsed": "0x167e0c",
      "logs": [],
      "logsBloom": "0x00000000000000000000000000000000000000000000000000000000000000000000000000000000000000000000000000000000000000000000000000000000000000000000000000000000000000000000000000000000000000000000000000000000000000000000000000000000000000000000000000000000000000000000000000000000000000000000000000000000000000000000000000000000000000000000000000000000000000000000000000000000000000000000000000000000000000000000000000000000000000000000000000000000000000000000000000000000000000000000000000000000000000000000000000000000",
      "type": "0x2",
      "transactionHash": "0x8501de3bc2aca0e09812d1a86394232f7cea614189070ae35ce73cfd1e18e2f6",
      "transactionIndex": "0x2",
      "blockHash": "0xb77aa6774714fa7ea49909cba4f9be60e72b6fb204f26d8735d2e56ffab16c1d",
      "blockNumber": "0x21daae2",
      "gasUsed": "0xe1781",
      "effectiveGasPrice": "0x124f80",
      "blobGasUsed": "0xc8a30",
      "from": "0xef4db09d536439831fecaa33fe4250168976535e",
      "to": null,
      "contractAddress": "0xaf1ea5e655ecc4befe11e15e9e97e55fdd726f7e",
      "daFootprintGasScalar": "0x138",
      "l1BaseFeeScalar": "0x44d",
      "l1BlobBaseFee": "0x8e4f80f1",
      "l1BlobBaseFeeScalar": "0xa118b",
      "l1Fee": "0x1d8dd72cd06",
      "l1GasPrice": "0x2c",
      "l1GasUsed": "0xa4a3"
    },
    {
      "status": "0x1",
      "cumulativeGasUsed": "0x277e4d",
      "logs": [],
      "logsBloom": "0x00000000000000000000000000000000000000000000000000000000000000000000000000000000000000000000000000000000000000000000000000000000000000000000000000000000000000000000000000000000000000000000000000000000000000000000000000000000000000000000000000000000000000000000000000000000000000000000000000000000000000000000000000000000000000000000000000000000000000000000000000000000000000000000000000000000000000000000000000000000000000000000000000000000000000000000000000000000000000000000000000000000000000000000000000000000",
      "type": "0x2",
      "transactionHash": "0xa47f2adc711773c19661a095019e6cc1c44860c96da1b19ab666a76959c54d17",
      "transactionIndex": "0x3",
      "blockHash": "0xb77aa6774714fa7ea49909cba4f9be60e72b6fb204f26d8735d2e56ffab16c1d",
      "blockNumber": "0x21daae2",
      "gasUsed": "0x110041",
      "effectiveGasPrice": "0x124f80",
      "blobGasUsed": "0xee7e8",
      "from": "0xef4db09d536439831fecaa33fe4250168976535e",
      "to": null,
      "contractAddress": "0x7fc063f88283530af91e4fe846f55e4a00d77998",
      "daFootprintGasScalar": "0x138",
      "l1BaseFeeScalar": "0x44d",
      "l1BlobBaseFee": "0x8e4f80f1",
      "l1BlobBaseFeeScalar": "0xa118b",
      "l1Fee": "0x1d8dd72cd06",
      "l1GasPrice": "0x2c",
      "l1GasUsed": "0xc3b1"
    },
    {
      "status": "0x1",
      "cumulativeGasUsed": "0x282ac1",
      "logs": [],
      "logsBloom": "0x00000000000000000000000000000000000000000000000000000000000000000000000000000000000000000000000000000000000000000000000000000000000000000000000000000000000000000000000000000000000000000000000000000000000000000000000000000000000000000000000000000000000000000000000000000000000000000000000000000000000000000000000000000000000000000000000000000000000000000000000000000000000000000000000000000000000000000000000000000000000000000000000000000000000000000000000000000000000000000000000000000000000000000000000000000000",
      "type": "0x2",
      "transactionHash": "0xfbc82f596bc989fa35f2f53c343a74f413847045670c8b3b00a3499a6461f23d",
      "transactionIndex": "0x4",
      "blockHash": "0xb77aa6774714fa7ea49909cba4f9be60e72b6fb204f26d8735d2e56ffab16c1d",
      "blockNumber": "0x21daae2",
      "gasUsed": "0xac74",
      "effectiveGasPrice": "0x124f80",
      "blobGasUsed": "0x79e0",
      "from": "0xef4db09d536439831fecaa33fe4250168976535e",
      "to": "0xaf1ea5e655ecc4befe11e15e9e97e55fdd726f7e",
      "contractAddress": null,
      "daFootprintGasScalar": "0x138",
      "l1BaseFeeScalar": "0x44d",
      "l1BlobBaseFee": "0x8e4f80f1",
      "l1BlobBaseFeeScalar": "0xa118b",
      "l1Fee": "0x1d8dd72cd06",
      "l1GasPrice": "0x2c",
      "l1GasUsed": "0x640"
    },
    {
      "status": "0x1",
      "cumulativeGasUsed": "0x299e90",
      "logs": [
        {
          "address": "0x7fc063f88283530af91e4fe846f55e4a00d77998",
          "topics": [
            "0x48883863e7ab83924fce34514467de88ad716c7d166f77fdbc804412b34c0762",
            "0x8750de1d37121f350cba3125ae50f1a56ab8440fe59938ca158120aa752fd72f"
          ],
          "data": "0x00000000000000000000000000000000000000000000000000000000694eb4980000000000000000000000000000000000000000000000000000000069764198",
          "blockHash": "0xb77aa6774714fa7ea49909cba4f9be60e72b6fb204f26d8735d2e56ffab16c1d",
          "blockNumber": "0x21daae2",
          "blockTimestamp": "0x694eb4a4",
          "transactionHash": "0x1b352e30d4e090e0a163b1709c7a404ec0611879f9d1a40e47a63d5bb36df7e6",
          "transactionIndex": "0x5",
          "logIndex": "0x1",
          "removed": false
        }
      ],
      "logsBloom": "0x00000000000000000000000000000000000000000000000000000000000000000000000000000000000000000000000000000000000000000000000080000000000000000000000000000000000000000000000000000020000000000000080000000000000000000004000000000000000000000000000001000000000000000000000000000010000000000000000000000000000000020000000000000000000000000000000000000000000000000000000000000000000000000000000000000000000000000000000000000000000000000000000000000000000000000000000000000000000000000000000000000000000000008000000000000000",
      "type": "0x2",
      "transactionHash": "0x1b352e30d4e090e0a163b1709c7a404ec0611879f9d1a40e47a63d5bb36df7e6",
      "transactionIndex": "0x5",
      "blockHash": "0xb77aa6774714fa7ea49909cba4f9be60e72b6fb204f26d8735d2e56ffab16c1d",
      "blockNumber": "0x21daae2",
      "gasUsed": "0x173cf",
      "effectiveGasPrice": "0x124f80",
      "blobGasUsed": "0x79e0",
      "from": "0xef4db09d536439831fecaa33fe4250168976535e",
      "to": "0x7fc063f88283530af91e4fe846f55e4a00d77998",
      "contractAddress": null,
      "daFootprintGasScalar": "0x138",
      "l1BaseFeeScalar": "0x44d",
      "l1BlobBaseFee": "0x8e4f80f1",
      "l1BlobBaseFeeScalar": "0xa118b",
      "l1Fee": "0x1d8dd72cd06",
      "l1GasPrice": "0x2c",
      "l1GasUsed": "0x647"
    },
    {
      "status": "0x1",
      "cumulativeGasUsed": "0x2aac2c",
      "logs": [],
      "logsBloom": "0x00000000000000000000000000000000000000000000000000000000000000000000000000000000000000000000000000000000000000000000000000000000000000000000000000000000000000000000000000000000000000000000000000000000000000000000000000000000000000000000000000000000000000000000000000000000000000000000000000000000000000000000000000000000000000000000000000000000000000000000000000000000000000000000000000000000000000000000000000000000000000000000000000000000000000000000000000000000000000000000000000000000000000000000000000000000",
      "type": "0x2",
      "transactionHash": "0x69f1bd92ec74d559afac1f8431f9cd9f2f4dad32f2eb282cd1dd687c2e84a07e",
      "transactionIndex": "0x6",
      "blockHash": "0xb77aa6774714fa7ea49909cba4f9be60e72b6fb204f26d8735d2e56ffab16c1d",
      "blockNumber": "0x21daae2",
      "gasUsed": "0x10d9c",
      "effectiveGasPrice": "0x124f80",
      "blobGasUsed": "0x8130",
      "from": "0xef4db09d536439831fecaa33fe4250168976535e",
      "to": "0x7fc063f88283530af91e4fe846f55e4a00d77998",
      "contractAddress": null,
      "daFootprintGasScalar": "0x138",
      "l1BaseFeeScalar": "0x44d",
      "l1BlobBaseFee": "0x8e4f80f1",
      "l1BlobBaseFeeScalar": "0xa118b",
      "l1Fee": "0x1d8dd72cd06",
      "l1GasPrice": "0x2c",
      "l1GasUsed": "0x6a4"
    },
    {
      "status": "0x1",
      "cumulativeGasUsed": "0x2bcbfa",
      "logs": [],
      "logsBloom": "0x00000000000000000000000000000000000000000000000000000000000000000000000000000000000000000000000000000000000000000000000000000000000000000000000000000000000000000000000000000000000000000000000000000000000000000000000000000000000000000000000000000000000000000000000000000000000000000000000000000000000000000000000000000000000000000000000000000000000000000000000000000000000000000000000000000000000000000000000000000000000000000000000000000000000000000000000000000000000000000000000000000000000000000000000000000000",
      "type": "0x2",
      "transactionHash": "0xd4e439bc1bcc3fc088472d8b3c3e77e9449e6b7de1f3f3489819d470942fc42b",
      "transactionIndex": "0x7",
      "blockHash": "0xb77aa6774714fa7ea49909cba4f9be60e72b6fb204f26d8735d2e56ffab16c1d",
      "blockNumber": "0x21daae2",
      "gasUsed": "0x11fce",
      "effectiveGasPrice": "0x124f80",
      "blobGasUsed": "0x8fd0",
      "from": "0xef4db09d536439831fecaa33fe4250168976535e",
      "to": "0x7fc063f88283530af91e4fe846f55e4a00d77998",
      "contractAddress": null,
      "daFootprintGasScalar": "0x138",
      "l1BaseFeeScalar": "0x44d",
      "l1BlobBaseFee": "0x8e4f80f1",
      "l1BlobBaseFeeScalar": "0xa118b",
      "l1Fee": "0x1d8dd72cd06",
      "l1GasPrice": "0x2c",
      "l1GasUsed": "0x76d"
    },
    {
      "status": "0x1",
      "cumulativeGasUsed": "0x2e5420",
      "logs": [],
      "logsBloom": "0x00000000000000000000000000000000000000000000000000000000000000000000000000000000000000000000000000000000000000000000000000000000000000000000000000000000000000000000000000000000000000000000000000000000000000000000000000000000000000000000000000000000000000000000000000000000000000000000000000000000000000000000000000000000000000000000000000000000000000000000000000000000000000000000000000000000000000000000000000000000000000000000000000000000000000000000000000000000000000000000000000000000000000000000000000000000",
      "type": "0x2",
      "transactionHash": "0x89953ff59b0ca9d48db5bfe4b55805ac4e0d8d83fcb8ad12a04ccfc8b6c81bf3",
      "transactionIndex": "0x9",
      "blockHash": "0xd1ae409bbd1d2430619e684499bf919816d531cdcc5a2bff3d6c5b6d758d55a0",
      "blockNumber": "0x21daae2",
      "gasUsed": "0x79d0",
      "effectiveGasPrice": "0x124f80",
      "blobGasUsed": "0x79e0",
      "from": "0xef4db09d536439831fecaa33fe4250168976535e",
      "to": "0x7fc063f88283530af91e4fe846f55e4a00d77998",
      "contractAddress": null,
      "daFootprintGasScalar": "0x138",
      "l1BaseFeeScalar": "0x44d",
      "l1BlobBaseFee": "0x8e4f80f1",
      "l1BlobBaseFeeScalar": "0xa118b",
      "l1Fee": "0x24ae606a1b",
      "l1GasPrice": "0x2c",
      "l1GasUsed": "0x640"
    },
    {
      "status": "0x1",
      "cumulativeGasUsed": "0x2ec34f",
      "logs": [
        {
          "address": "0x7fc063f88283530af91e4fe846f55e4a00d77998",
          "topics": [
            "0xf8ccb027dfcd135e000e9d45e6cc2d662578a8825d4c45b5e32e0adf67e79ec6",
            "0x000000000000000000000000ef4db09d536439831fecaa33fe4250168976535e",
            "0x000000000000000000000000d264be80817eafac5f7575698913fec4cb38a016"
          ],
          "data": "0x",
          "blockHash": "0xd1ae409bbd1d2430619e684499bf919816d531cdcc5a2bff3d6c5b6d758d55a0",
          "blockNumber": "0x21daae2",
          "blockTimestamp": "0x694eb4a4",
          "transactionHash": "0x19cccf7f1a2929c558f5b6e6a3de305231c0f5dc77f3d618a6e0a6ff4cf7f26d",
          "transactionIndex": "0xa",
          "logIndex": "0x4",
          "removed": false
        }
      ],
      "logsBloom": "0x00000000000000000000000000000000000008000000000000000000000000000000000000000000000000000000000000000000000000000000000000000000000000000000000000000000000000000000000000000000000000000000080000000000000000000000000000000000000000000000000001020000000000000000000000000000000400000000000000000000000000020000000000000000000000000000000000000000000000000000000000000000000000000018000040000000002000000000000000100000000000000000000000000000000008000000000000000000000000000000000000000000000000000000000000000000",
      "type": "0x2",
      "transactionHash": "0x19cccf7f1a2929c558f5b6e6a3de305231c0f5dc77f3d618a6e0a6ff4cf7f26d",
      "transactionIndex": "0xa",
      "blockHash": "0xd1ae409bbd1d2430619e684499bf919816d531cdcc5a2bff3d6c5b6d758d55a0",
      "blockNumber": "0x21daae2",
      "gasUsed": "0x6f2f",
      "effectiveGasPrice": "0x124f80",
      "blobGasUsed": "0x79e0",
      "from": "0xef4db09d536439831fecaa33fe4250168976535e",
      "to": "0x7fc063f88283530af91e4fe846f55e4a00d77998",
      "contractAddress": null,
      "daFootprintGasScalar": "0x138",
      "l1BaseFeeScalar": "0x44d",
      "l1BlobBaseFee": "0x8e4f80f1",
      "l1BlobBaseFeeScalar": "0xa118b",
      "l1Fee": "0x24ae606a1b",
      "l1GasPrice": "0x2c",
      "l1GasUsed": "0x640"
    }
  ],
  "libraries": [],
  "pending": [],
  "returns": {},
  "timestamp": 1766765788,
  "chain": 84532,
  "commit": "0a21472"
}