{
  "transactions": [
    {
      "hash": "0xd211c7139041feb3247b512782e17aaef1f58ac7caf65eade1ec3c05858d6595",
      "transactionType": "CREATE",
      "contractName": "TestUSDC",
      "contractAddress": "0xded19e57d23229484431a8668a56317d48006d16",
      "function": null,
      "arguments": [
        "1000000000000"
      ],
      "transaction": {
        "from": "0xef4db09d536439831fecaa33fe4250168976535e",
        "gas": "0xa0120",
        "value": "0x0",
        "input": "0x60803461019a57601f61080438819003918201601f19168301916001600160401b0383118484101761019e5780849260209460405283398101031261019a57516100495f546101b2565b601f8111610153575b507f54657374205553444300000000000000000000000000000000000000000000125f5560018054610083906101b2565b601f811161010c575b826008635553444360e01b01600155600660ff196002541617600255335f52600460205260405f206100bf8282546101ea565b90556100cd816003546101ea565b6003556040519081525f7fddf252ad1be2c89b69c2b068fc378daa952ba7f163c4a11628f55a4df523b3ef60203393a36040516105f8908161020c8239f35b60015f52601f0160051c7fb10e2d527612073b26eecdfd717e6a320cf44b4afac2b0732d9fcbe2b7fa0cf6908101905b818110610149575061008c565b5f8155820161013c565b5f8052601f0160051c7f290decd9548b62a8d60345a988386fc84ba6bc95484008f6362f93160ef3e563908101905b81811061018f5750610052565b5f8155600101610182565b5f80fd5b634e487b7160e01b5f52604160045260245ffd5b90600182811c921680156101e0575b60208310146101cc57565b634e487b7160e01b5f52602260045260245ffd5b91607f16916101c1565b919082018092116101f757565b634e487b7160e01b5f52601160045260245ffdfe6080604090808252600480361015610015575f80fd5b5f3560e01c91826306fdde03146103a957508163095ea7b31461033b57816318160ddd1461031d57816323b872dd14610277578163313ce5671461025657816370a082311461022157816395d89b41146100ff57508063a9059cbb146100cf5763dd62ed3e14610083575f80fd5b346100cb57806003193601126100cb5760209061009e6104c5565b6100a66104db565b9060018060a01b038091165f5260058452825f2091165f528252805f20549051908152f35b5f80fd5b50346100cb57806003193601126100cb576020906100f86100ee6104c5565b6024359033610512565b5160018152f35b82346100cb575f3660031901126100cb578051905f60018054908160011c9060018316928315610217575b6020938484108114610204578388529081156101e85750600114610192575b505050829003601f01601f191682019267ffffffffffffffff84118385101761017f575082918261017b92528261047e565b0390f35b604190634e487b7160e01b5f525260245ffd5b60015f908152929350837fb10e2d527612073b26eecdfd717e6a320cf44b4afac2b0732d9fcbe2b7fa0cf65b8385106101d45750505050830101848080610149565b8054888601830152930192849082016101be565b60ff1916878501525050151560051b8401019050848080610149565b602289634e487b7160e01b5f525260245ffd5b91607f169161012a565b82346100cb5760203660031901126100cb576020916001600160a01b036102466104c5565b165f528252805f20549051908152f35b82346100cb575f3660031901126100cb5760209060ff600254169051908152f35b82346100cb5760603660031901126100cb576102916104c5565b9061029a6104db565b6044359060018060a01b03841693845f5260209460058652845f20335f528652845f2054968488106102ee57506102d6846100f89697986104f1565b905f5260058752855f20335f528752855f2055610512565b855162461bcd60e51b81529081018790526009602482015268616c6c6f77616e636560b81b6044820152606490fd5b82346100cb575f3660031901126100cb576020906003549051908152f35b82346100cb57806003193601126100cb576020906103576104c5565b602435335f5260058452825f209160018060a01b031691825f52845280835f205582519081527f8c5be1e5ebec7d5bd14f71427d1e84f3dd0314c0f7b2291e5b200ac8c7c3b925843392a35160018152f35b83346100cb575f3660031901126100cb575f805460018160011c9060018316928315610474575b6020938484108114610204578388529081156101e8575060011461042057505050829003601f01601f191682019267ffffffffffffffff84118385101761017f575082918261017b92528261047e565b5f808052929350837f290decd9548b62a8d60345a988386fc84ba6bc95484008f6362f93160ef3e5635b8385106104605750505050830101848080610149565b80548886018301529301928490820161044a565b91607f16916103d0565b602080825282518183018190529093925f5b8281106104b157505060409293505f838284010152601f8019910116010190565b818101860151848201604001528501610490565b600435906001600160a01b03821682036100cb57565b602435906001600160a01b03821682036100cb57565b919082039182116104fe57565b634e487b7160e01b5f52601160045260245ffd5b60018060a01b0380911691825f5260046020528360405f20541061059357825f52600460205260405f206105478582546104f1565b90551691825f52600460205260405f208054918083018093116104fe577fddf252ad1be2c89b69c2b068fc378daa952ba7f163c4a11628f55a4df523b3ef9260209255604051908152a3565b60405162461bcd60e51b815260206004820152600760248201526662616c616e636560c81b6044820152606490fdfea26469706673582212204549e73f812fef3b894c8c58ab1333f341cc7988b4aa81b00c97653a834f334d64736f6c63430008180033000000000000000000000000000000000000000000000000000000e8d4a51000",
        "nonce": "0x35",
        "chainId": "0x14a34"
      },
      "additionalContracts": [],
      "isFixedGasLimit": false
    },
    {
      "hash": "0x9de39de8d7ce3e771ec1294656645a5975854d2522da64f4f9bbdac0361a2375",
      "transactionType": "CREATE",
      "contractName": "ZKTCampaignPool",
      "contractAddress": "0xdab8df575324454673f6afd16b6262468e31169b",
      "function": null,
      "arguments": [
        "0xeF4DB09D536439831FEcaA33fE4250168976535E",
        "0xdED19e57d23229484431A8668a56317d48006d16"
      ],
      "transaction": {
        "from": "0xef4db09d536439831fecaa33fe4250168976535e",
        "gas": "0x11d1cb",
        "value": "0x0",
        "input": "0x60a03461010c57601f61100238819003918201601f19168301916001600160401b0383118484101761011057808492604094855283398101031261010c57610052602061004b83610124565b9201610124565b6001600160a01b03918216919082156100da57169081156100a8575f80546001600160a01b031916919091179055608052604051610ec99081610139823960805181818160f60152818161023401526106000152f35b60405162461bcd60e51b815260206004820152600a602482015269746f6b656e207a65726f60b01b6044820152606490fd5b60405162461bcd60e51b815260206004820152600a60248201526961646d696e207a65726f60b01b6044820152606490fd5b5f80fd5b634e487b7160e01b5f52604160045260245ffd5b51906001600160a01b038216820361010c5756fe604060808152600480361015610013575f80fd5b5f3560e01c90816311e4506c14610be557816319e55d5c14610b5b5781631bde12ef146109955781633f4ba83a1461093e578163417cc5e8146109125781635c975abb146108ed57816369f5e26d1461083257816375829def1461078757816376557a191461055e5781638456cb5914610501578163888c9a75146104da5781639e70aced146104ab5781639eca2f1e146104375781639f19d36114610399578163eb4f43f31461017f578163f851a44014610158578163f8cff74414610129575063fc0c546a146100e3575f80fd5b34610125575f36600319011261012557517f00000000000000000000000000000000000000000000000000000000000000006001600160a01b03168152602090f35b5f80fd5b823461012557806003193601126101255781602092355f528252805f206024355f528252805f20549051908152f35b8234610125575f366003190112610125575f5490516001600160a01b039091168152602090f35b90503461012557816003193601126101255767ffffffffffffffff81356024803590838211610125573660238301121561012557818501359384116101255736818560051b84010111610125575f546001600160a01b0391906101f69060ff906101ec3386831614610d3f565b60a01c1615610e08565b835f5260209260018452875f20805461021160ff8216610d77565b60ff8160101c166103635762ff00001916620100001781556001015495968615967f00000000000000000000000000000000000000000000000000000000000000008516925f5b8a811061026157005b858160051b8301013590895f528489528c5f20825f5289528c5f205480156103595780850290858204148c171561034757612710900491805f5260038a528d89815f20541681519063a9059cbb60e01b825288820152848a8201528b816044815f8d5af1801561033d576001958e936103048f937fd776be6d27ffa3e0ad77b8e2d0446045520fccaf5dd1d0eaf6fc240db126d006955f91610310575b50610e55565b51908152a35b01610258565b6103309150853d8711610336575b6103288183610dd2565b810190610e3d565b5f6102fe565b503d61031e565b82513d5f823e3d90fd5b87601187634e487b7160e01b5f52525ffd5b506001915061030a565b895162461bcd60e51b8152808a0187905260118186015270185b1c9958591e48191a5cd89d5c9cd959607a1b6044820152606490fd5b82346101255780600319360112610125576024356001600160a01b038181169391849003610125576103cf905f54163314610d3f565b821561040757355f90815260026020908152828220805460ff19166001179055600390522080546001600160a01b0319169091179055005b6020606492519162461bcd60e51b8352820152600b60248201526a1e995c9bc81dd85b1b195d60aa1b6044820152fd5b82346101255760203660031901126101255760e091355f526001602052805f20805490600181015460ff600360028401549301549385519582821615158752828260081c1615156020880152828260101c1615159087015260181c1615156060850152608084015260a083015260c0820152f35b823461012557602036600319011261012557602091355f526003825260018060a01b03815f2054169051908152f35b823461012557602036600319011261012557602091355f5260058252805f20549051908152f35b34610125575f366003190112610125575f54610527336001600160a01b03831614610d3f565b60ff60a01b1916600160a01b175f9081557f9e87fac88ff661f02d44f95383c817fece4bce600a3dab7a54406878b965e7529080a1005b90503461012557816003193601126101255780359060249283359361058a60ff5f5460a01c1615610e08565b835f5260209260018452825f209182546105a660ff8216610d77565b60ff8160181c1661075c576002840154421061072c57600384015442116107025760081c60ff16156106c85786156106a05783516323b872dd60e01b8152339281019290925230908201526044810186905283816064815f7f00000000000000000000000000000000000000000000000000000000000000006001600160a01b03165af190811561069657916106686001927f54c25c010675db5311551a80c00f48292c63e3d9072b58265bc8340584ef5af49695945f9161067f5750610e55565b01610674868254610db1565b9055519384523393a3005b6103309150863d8811610336576103288183610dd2565b83513d5f823e3d90fd5b925162461bcd60e51b81528181018590529283015250637a65726f60e01b6044820152606490fd5b835162461bcd60e51b815291820185905260159082015274185b1b1bd8d85d1a5bdb881b9bdd081b1bd8dad959605a1b6044820152606490fd5b845162461bcd60e51b815280840187905260058184015264195b99195960da1b6044820152606490fd5b845162461bcd60e51b8152808401879052600b818401526a1b9bdd081cdd185c9d195960aa1b6044820152606490fd5b845162461bcd60e51b81528084018790526006818401526518db1bdcd95960d21b6044820152606490fd5b8234610125576020366003190112610125576001600160a01b0382358181169390849003610125575f54918216926107c0843314610d3f565b84156107fe5750506001600160a01b03191682175f9081557ff8ccb027dfcd135e000e9d45e6cc2d662578a8825d4c45b5e32e0adf67e79ec69080a3005b906020606492519162461bcd60e51b8352820152600e60248201526d6e65772061646d696e207a65726f60901b6044820152fd5b9050346101255760203660031901126101255780359161085c60018060a01b035f54163314610d3f565b825f526001602052805f209182549161087760ff8416610d77565b60ff8360181c166108b957505063ff000000191663010000001790557f45ff51dd7cc3c27ad7a963f6f2ea2c1bf7f0a50b22146faa52bfed0458ddd5e45f80a2005b906020606492519162461bcd60e51b8352820152600e60248201526d185b1c9958591e4818db1bdcd95960921b6044820152fd5b8234610125575f3660031901126101255760209060ff5f5460a01c1690519015158152f35b823461012557602036600319011261012557602091355f526002825260ff815f20541690519015158152f35b34610125575f366003190112610125575f54610964336001600160a01b03831614610d3f565b60ff60a01b19165f9081557fa45f47fdea8a1efdd9029a5691c7f759c32b7c698632b563573e155625d169339080a1005b8234610125576060366003190112610125578135906024356044356109c460018060a01b035f54163314610d3f565b835f5260206001815260ff845f205416610b305782821115610aff5742821115610acf57835160e0810181811067ffffffffffffffff821117610abc577f48883863e7ab83924fce34514467de88ad716c7d166f77fdbc804412b34c076296975085526001815260038282015f8152868301905f825260608401905f825260808501905f825260a086019289845260c08701948986528d5f52600189528b5f20975115159260ff63ff00000062ff000061ff008c549451151560081b169451151560101b169451151560181b1694169063ffffffff1916171717178555516001850155516002840155519101558351928352820152a2005b604188634e487b7160e01b5f525260245ffd5b8560649185519162461bcd60e51b8352820152600b60248201526a195b99081a5b881c185cdd60aa1b6044820152fd5b8560649185519162461bcd60e51b8352820152600c60248201526b696e76616c69642074696d6560a01b6044820152fd5b8560649185519162461bcd60e51b8352820152600660248201526565786973747360d01b6044820152fd5b90503461012557602036600319011261012557803590610b8560018060a01b035f54163314610d3f565b815f526005602052612710835f205403610bb357505f908152600160205220805461ff001916610100179055005b606490602084519162461bcd60e51b8352820152600c60248201526b6d757374206265203130302560a01b6044820152fd5b82346101255760603660031901126101255781356024359060443593610c1560018060a01b035f54163314610d3f565b815f526020916001835260ff855f2054610c30828216610d77565b60081c16610d1457835f526002835260ff855f20541615610cdf57805f5260058352845f2054828452855f20855f528452855f20548103908111610ccc57610c7b8761271092610db1565b825f526005855280875f205511610c9e575f528152825f20915f52525f20555f80f35b5060649184519162461bcd60e51b835282015260096024820152686f766572203130302560b81b6044820152fd5b601183634e487b7160e01b5f525260245ffd5b5060649184519162461bcd60e51b8352820152601060248201526f1b99dbc81b9bdd08185c1c1c9bdd995960821b6044820152fd5b5060649184519162461bcd60e51b835282015260066024820152651b1bd8dad95960d21b6044820152fd5b15610d4657565b60405162461bcd60e51b81526020600482015260096024820152683737ba1030b236b4b760b91b6044820152606490fd5b15610d7e57565b60405162461bcd60e51b815260206004820152600b60248201526a37379031b0b6b830b4b3b760a91b6044820152606490fd5b91908201809211610dbe57565b634e487b7160e01b5f52601160045260245ffd5b90601f8019910116810190811067ffffffffffffffff821117610df457604052565b634e487b7160e01b5f52604160045260245ffd5b15610e0f57565b60405162461bcd60e51b81526020600482015260066024820152651c185d5cd95960d21b6044820152606490fd5b90816020910312610125575180151581036101255790565b15610e5c57565b60405162461bcd60e51b815260206004820152600f60248201526e1d1c985b9cd9995c8819985a5b1959608a1b6044820152606490fdfea2646970667358221220d0b6a057f7cdb8497652434b00180a40ce16bcd85616a75da548793ba87b12c964736f6c63430008180033000000000000000000000000ef4db09d536439831fecaa33fe4250168976535e000000000000000000000000ded19e57d23229484431a8668a56317d48006d16",
        "nonce": "0x36",
        "chainId": "0x14a34"
      },
      "additionalContracts": [],
      "isFixedGasLimit": false
    },
    {
      "hash": "0x2e149cf6b6fb5b742f94aef566c96bc4dcc8d8df98966934ac78127cb2fa1655",
      "transactionType": "CALL",
      "contractName": "ZKTCampaignPool",
      "contractAddress": "0xdab8df575324454673f6afd16b6262468e31169b",
      "function": "createCampaign(bytes32,uint256,uint256)",
      "arguments": [
        "0x8750de1d37121f350cba3125ae50f1a56ab8440fe59938ca158120aa752fd72f",
        "1766751402",
        "1769343402"
      ],
      "transaction": {
        "from": "0xef4db09d536439831fecaa33fe4250168976535e",
        "to": "0xdab8df575324454673f6afd16b6262468e31169b",
        "gas": "0x21f83",
        "value": "0x0",
        "input": "0x1bde12ef8750de1d37121f350cba3125ae50f1a56ab8440fe59938ca158120aa752fd72f00000000000000000000000000000000000000000000000000000000694e7caa00000000000000000000000000000000000000000000000000000000697609aa",
        "nonce": "0x37",
        "chainId": "0x14a34"
      },
      "additionalContracts": [],
      "isFixedGasLimit": false
    },
    {
      "hash": "0x158f56dfa61ba454b481948ded1b31f0a5a6f9f52d9c0fac227c9c8911a85d44",
      "transactionType": "CALL",
      "contractName": "ZKTCampaignPool",
      "contractAddress": "0xdab8df575324454673f6afd16b6262468e31169b",
      "function": "approveNGO(bytes32,address)",
      "arguments": [
        "0xaf6f7411c9ec96f169dfcb406f5901e083e80e8c2e5275eb6aa86ae632d475d7",
        "0x2ca80Cc5e254C45E99281F670d694B22E6a90FC4"
      ],
      "transaction": {
        "from": "0xef4db09d536439831fecaa33fe4250168976535e",
        "to": "0xdab8df575324454673f6afd16b6262468e31169b",
        "gas": "0x18a11",
        "value": "0x0",
        "input": "0x9f19d361af6f7411c9ec96f169dfcb406f5901e083e80e8c2e5275eb6aa86ae632d475d70000000000000000000000002ca80cc5e254c45e99281f670d694b22e6a90fc4",
        "nonce": "0x38",
        "chainId": "0x14a34"
      },
      "additionalContracts": [],
      "isFixedGasLimit": false
    },
    {
      "hash": "0xedc7b0dd7319383595b8ef523b9cf6f9c71268dd3eea7c0f951f9d97c061491c",
      "transactionType": "CALL",
      "contractName": "ZKTCampaignPool",
      "contractAddress": "0xdab8df575324454673f6afd16b6262468e31169b",
      "function": "setAllocation(bytes32,bytes32,uint256)",
      "arguments": [
        "0x8750de1d37121f350cba3125ae50f1a56ab8440fe59938ca158120aa752fd72f",
        "0xaf6f7411c9ec96f169dfcb406f5901e083e80e8c2e5275eb6aa86ae632d475d7",
        "10000"
      ],
      "transaction": {
        "from": "0xef4db09d536439831fecaa33fe4250168976535e",
        "to": "0xdab8df575324454673f6afd16b6262468e31169b",
        "gas": "0x18d7c",
        "value": "0x0",
        "input": "0x11e4506c8750de1d37121f350cba3125ae50f1a56ab8440fe59938ca158120aa752fd72faf6f7411c9ec96f169dfcb406f5901e083e80e8c2e5275eb6aa86ae632d475d70000000000000000000000000000000000000000000000000000000000002710",
        "nonce": "0x39",
        "chainId": "0x14a34"
      },
      "additionalContracts": [],
      "isFixedGasLimit": false
    },
    {
      "hash": "0x1be040af303f506bda5310592bd17435f3a3590470db705b4c3f87aa89d7696a",
      "transactionType": "CALL",
      "contractName": "ZKTCampaignPool",
      "contractAddress": "0xdab8df575324454673f6afd16b6262468e31169b",
      "function": "lockAllocation(bytes32)",
      "arguments": [
        "0x8750de1d37121f350cba3125ae50f1a56ab8440fe59938ca158120aa752fd72f"
      ],
      "transaction": {
        "from": "0xef4db09d536439831fecaa33fe4250168976535e",
        "to": "0xdab8df575324454673f6afd16b6262468e31169b",
        "gas": "0xa835",
        "value": "0x0",
        "input": "0x19e55d5c8750de1d37121f350cba3125ae50f1a56ab8440fe59938ca158120aa752fd72f",
        "nonce": "0x3a",
        "chainId": "0x14a34"
      },
      "additionalContracts": [],
      "isFixedGasLimit": false
    },
    {
      "hash": "0xca2a0965d322ecf3a5b81f31ec0e9fc7f9ecc771bede1ca856593e00d92874dc",
      "transactionType": "CALL",
      "contractName": "ZKTCampaignPool",
      "contractAddress": "0xdab8df575324454673f6afd16b6262468e31169b",
      "function": "transferAdmin(address)",
      "arguments": [
        "0xD264BE80817EAfaC5F7575698913FEc4cB38a016"
      ],
      "transaction": {
        "from": "0xef4db09d536439831fecaa33fe4250168976535e",
        "to": "0xdab8df575324454673f6afd16b6262468e31169b",
        "gas": "0x9944",
        "value": "0x0",
        "input": "0x75829def000000000000000000000000d264be80817eafac5f7575698913fec4cb38a016",
        "nonce": "0x3b",
        "chainId": "0x14a34"
      },
      "additionalContracts": [],
      "isFixedGasLimit": false
    }
  ],
  "receipts": [
    {
      "status": "0x1",
      "cumulativeGasUsed": "0x869701",
      "logs": [
        {
          "address": "0xded19e57d23229484431a8668a56317d48006d16",
          "topics": [
            "0xddf252ad1be2c89b69c2b068fc378daa952ba7f163c4a11628f55a4df523b3ef",
            "0x0000000000000000000000000000000000000000000000000000000000000000",
            "0x000000000000000000000000ef4db09d536439831fecaa33fe4250168976535e"
          ],
          "data": "0x000000000000000000000000000000000000000000000000000000e8d4a51000",
          "blockHash": "0x13b8229686dff40e4ab83414d5c44dc2060ae9f61e7f12fe50789400d6a38a12",
          "blockNumber": "0x21d8eeb",
          "blockTimestamp": "0x694e7cb6",
          "transactionHash": "0xd211c7139041feb3247b512782e17aaef1f58ac7caf65eade1ec3c05858d6595",
          "transactionIndex": "0x13",
          "logIndex": "0xee",
          "removed": false
        }
      ],
      "logsBloom": "0x00000000000000000000000001000000000000000000000000000000000000000000000000000000000400000000000000000000000000000000000000000000000000000000000000000008000000000000000000000000000000000000000000000000020000000000000000000800000000000000000000020010000000000000000000000000000400000000000000000000000000000000000000000000000000000000000000000000000000000000000000000000000000000008000000000002000000000000000000000000000000000000000000020000000020000000000000000000000000000000000000000000000000000000000000000000",
      "type": "0x2",
      "transactionHash": "0xd211c7139041feb3247b512782e17aaef1f58ac7caf65eade1ec3c05858d6595",
      "transactionIndex": "0x13",
      "blockHash": "0x13b8229686dff40e4ab83414d5c44dc2060ae9f61e7f12fe50789400d6a38a12",
      "blockNumber": "0x21d8eeb",
      "gasUsed": "0x7b219",
      "effectiveGasPrice": "0x13f055",
      "blobGasUsed": "0x622f8",
      "from": "0xef4db09d536439831fecaa33fe4250168976535e",
      "to": null,
      "contractAddress": "0xded19e57d23229484431a8668a56317d48006d16",
      "daFootprintGasScalar": "0x138",
      "l1BaseFeeScalar": "0x44d",
      "l1BlobBaseFee": "0x8fea78e8",
      "l1BlobBaseFeeScalar": "0xa118b",
      "l1Fee": "0x25187f9d9d",
      "l1GasPrice": "0x1c0a8c",
      "l1GasUsed": "0x5091"
    },
    {
      "status": "0x1",
      "cumulativeGasUsed": "0x9948e6",
      "logs": [],
      "logsBloom": "0x00000000000000000000000000000000000000000000000000000000000000000000000000000000000000000000000000000000000000000000000000000000000000000000000000000000000000000000000000000000000000000000000000000000000000000000000000000000000000000000000000000000000000000000000000000000000000000000000000000000000000000000000000000000000000000000000000000000000000000000000000000000000000000000000000000000000000000000000000000000000000000000000000000000000000000000000000000000000000000000000000000000000000000000000000000000",
      "type": "0x2",
      "transactionHash": "0x9de39de8d7ce3e771ec1294656645a5975854d2522da64f4f9bbdac0361a2375",
      "transactionIndex": "0x18",
      "blockHash": "0x0b0aa7869171f6769d0d0dc79c67dddd97884dde3fe1997aecf705c16c7da93e",
      "blockNumber": "0x21d8eeb",
      "gasUsed": "0xdb513",
      "effectiveGasPrice": "0x13f055",
      "blobGasUsed": "0xbc730",
      "from": "0xef4db09d536439831fecaa33fe4250168976535e",
      "to": null,
      "contractAddress": "0xdab8df575324454673f6afd16b6262468e31169b",
      "daFootprintGasScalar": "0x138",
      "l1BaseFeeScalar": "0x44d",
      "l1BlobBaseFee": "0x8fea78e8",
      "l1BlobBaseFeeScalar": "0xa118b",
      "l1Fee": "0x25187f9d9d",
      "l1GasPrice": "0x1c0a8c",
      "l1GasUsed": "0x9aa7"
    },
    {
      "status": "0x1",
      "cumulativeGasUsed": "0x9abc88",
      "logs": [
        {
          "address": "0xdab8df575324454673f6afd16b6262468e31169b",
          "topics": [
            "0x48883863e7ab83924fce34514467de88ad716c7d166f77fdbc804412b34c0762",
            "0x8750de1d37121f350cba3125ae50f1a56ab8440fe59938ca158120aa752fd72f"
          ],
          "data": "0x00000000000000000000000000000000000000000000000000000000694e7caa00000000000000000000000000000000000000000000000000000000697609aa",
          "blockHash": "0x0b0aa7869171f6769d0d0dc79c67dddd97884dde3fe1997aecf705c16c7da93e",
          "blockNumber": "0x21d8eeb",
          "blockTimestamp": "0x694e7cb6",
          "transactionHash": "0x2e149cf6b6fb5b742f94aef566c96bc4dcc8d8df98966934ac78127cb2fa1655",
          "transactionIndex": "0x19",
          "logIndex": "0xfa",
          "removed": false
        }
      ],
      "logsBloom": "0x00000000000000000000000000000000000010000000001000000000000000000000000000000000000000000000000000000000000000000000000080000000000000000000000000000000000000000000000000000020000000000000080000000000000000000004000000000000000000000000000000000000000000000000000000000010000000000000000000000000000000000000000000000000000000000000000000000000000000000000000000000000000000000000000000000000000000000000000000000000000000000000000200000000000000000000000000000000000000000000000000000000000000008000000000000000",
      "type": "0x2",
      "transactionHash": "0x2e149cf6b6fb5b742f94aef566c96bc4dcc8d8df98966934ac78127cb2fa1655",
      "transactionIndex": "0x19",
      "blockHash": "0x0b0aa7869171f6769d0d0dc79c67dddd97884dde3fe1997aecf705c16c7da93e",
      "blockNumber": "0x21d8eeb",
      "gasUsed": "0x173a2",
      "effectiveGasPrice": "0x13f055",
      "blobGasUsed": "0x79e0",
      "from": "0xef4db09d536439831fecaa33fe4250168976535e",
      "to": "0xdab8df575324454673f6afd16b6262468e31169b",
      "contractAddress": null,
      "daFootprintGasScalar": "0x138",
      "l1BaseFeeScalar": "0x44d",
      "l1BlobBaseFee": "0x8fea78e8",
      "l1BlobBaseFeeScalar": "0xa118b",
      "l1Fee": "0x25187f9d9d",
      "l1GasPrice": "0x1c0a8c",
      "l1GasUsed": "0x647"
    },
    {
      "status": "0x1",
      "cumulativeGasUsed": "0x9bc9fb",
      "logs": [],
      "logsBloom": "0x00000000000000000000000000000000000000000000000000000000000000000000000000000000000000000000000000000000000000000000000000000000000000000000000000000000000000000000000000000000000000000000000000000000000000000000000000000000000000000000000000000000000000000000000000000000000000000000000000000000000000000000000000000000000000000000000000000000000000000000000000000000000000000000000000000000000000000000000000000000000000000000000000000000000000000000000000000000000000000000000000000000000000000000000000000000",
      "type": "0x2",
      "transactionHash": "0x158f56dfa61ba454b481948ded1b31f0a5a6f9f52d9c0fac227c9c8911a85d44",
      "transactionIndex": "0x1a",
      "blockHash": "0x0b0aa7869171f6769d0d0dc79c67dddd97884dde3fe1997aecf705c16c7da93e",
      "blockNumber": "0x21d8eeb",
      "gasUsed": "0x10d73",
      "effectiveGasPrice": "0x13f055",
      "blobGasUsed": "0x8130",
      "from": "0xef4db09d536439831fecaa33fe4250168976535e",
      "to": "0xdab8df575324454673f6afd16b6262468e31169b",
      "contractAddress": null,
      "daFootprintGasScalar": "0x138",
      "l1BaseFeeScalar": "0x44d",
      "l1BlobBaseFee": "0x8fea78e8",
      "l1BlobBaseFeeScalar": "0xa118b",
      "l1Fee": "0x25187f9d9d",
      "l1GasPrice": "0x1c0a8c",
      "l1GasUsed": "0x6a4"
    },
    {
      "status": "0x1",
      "cumulativeGasUsed": "0x9ce9c1",
      "logs": [],
      "logsBloom": "0x00000000000000000000000000000000000000000000000000000000000000000000000000000000000000000000000000000000000000000000000000000000000000000000000000000000000000000000000000000000000000000000000000000000000000000000000000000000000000000000000000000000000000000000000000000000000000000000000000000000000000000000000000000000000000000000000000000000000000000000000000000000000000000000000000000000000000000000000000000000000000000000000000000000000000000000000000000000000000000000000000000000000000000000000000000000",
      "type": "0x2",
      "transactionHash": "0xedc7b0dd7319383595b8ef523b9cf6f9c71268dd3eea7c0f951f9d97c061491c",
      "transactionIndex": "0x1b",
      "blockHash": "0x0b0aa7869171f6769d0d0dc79c67dddd97884dde3fe1997aecf705c16c7da93e",
      "blockNumber": "0x21d8eeb",
      "gasUsed": "0x11fc6",
      "effectiveGasPrice": "0x13f055",
      "blobGasUsed": "0x8fd0",
      "from": "0xef4db09d536439831fecaa33fe4250168976535e",
      "to": "0xdab8df575324454673f6afd16b6262468e31169b",
      "contractAddress": null,
      "daFootprintGasScalar": "0x138",
      "l1BaseFeeScalar": "0x44d",
      "l1BlobBaseFee": "0x8fea78e8",
      "l1BlobBaseFeeScalar": "0xa118b",
      "l1Fee": "0x25187f9d9d",
      "l1GasPrice": "0x1c0a8c",
      "l1GasUsed": "0x76d"
    },
    {
      "status": "0x1",
      "cumulativeGasUsed": "0x9d6389",
      "logs": [],
      "logsBloom": "0x00000000000000000000000000000000000000000000000000000000000000000000000000000000000000000000000000000000000000000000000000000000000000000000000000000000000000000000000000000000000000000000000000000000000000000000000000000000000000000000000000000000000000000000000000000000000000000000000000000000000000000000000000000000000000000000000000000000000000000000000000000000000000000000000000000000000000000000000000000000000000000000000000000000000000000000000000000000000000000000000000000000000000000000000000000000",
      "type": "0x2",
      "transactionHash": "0x1be040af303f506bda5310592bd17435f3a3590470db705b4c3f87aa89d7696a",
      "transactionIndex": "0x1c",
      "blockHash": "0x0b0aa7869171f6769d0d0dc79c67dddd97884dde3fe1997aecf705c16c7da93e",
      "blockNumber": "0x21d8eeb",
      "gasUsed": "0x79c8",
      "effectiveGasPrice": "0x13f055",
      "blobGasUsed": "0x79e0",
      "from": "0xef4db09d536439831fecaa33fe4250168976535e",
      "to": "0xdab8df575324454673f6afd16b6262468e31169b",
      "contractAddress": null,
      "daFootprintGasScalar": "0x138",
      "l1BaseFeeScalar": "0x44d",
      "l1BlobBaseFee": "0x8fea78e8",
      "l1BlobBaseFeeScalar": "0xa118b",
      "l1Fee": "0x25187f9d9d",
      "l1GasPrice": "0x1c0a8c",
      "l1GasUsed": "0x640"
    },
    {
      "status": "0x1",
      "cumulativeGasUsed": "0x9dd280",
      "logs": [
        {
          "address": "0xdab8df575324454673f6afd16b6262468e31169b",
          "topics": [
            "0xf8ccb027dfcd135e000e9d45e6cc2d662578a8825d4c45b5e32e0adf67e79ec6",
            "0x000000000000000000000000ef4db09d536439831fecaa33fe4250168976535e",
            "0x000000000000000000000000d264be80817eafac5f7575698913fec4cb38a016"
          ],
          "data": "0x",
          "blockHash": "0x0b0aa7869171f6769d0d0dc79c67dddd97884dde3fe1997aecf705c16c7da93e",
          "blockNumber": "0x21d8eeb",
          "blockTimestamp": "0x694e7cb6",
          "transactionHash": "0xca2a0965d322ecf3a5b81f31ec0e9fc7f9ecc771bede1ca856593e00d92874dc",
          "transactionIndex": "0x1d",
          "logIndex": "0xfb",
          "removed": false
        }
      ],
      "logsBloom": "0x00000000000000000000000000000000000018000000001000000000000000000000000000000000000000000000000000000000000000000000000000000000000000000000000000000000000000000000000000000000000000000000000000000000000000000000000000000000000000000000000000020000000000000000000000000000000400000000000000000000000000000000000000000000000000000000000000000000000000000000000000000000000000000018000040000000002000000000000000100000000000000000000200000000000008000000000000000000000000000000000000000000000000000000000000000000",
      "type": "0x2",
      "transactionHash": "0xca2a0965d322ecf3a5b81f31ec0e9fc7f9ecc771bede1ca856593e00d92874dc",
      "transactionIndex": "0x1d",
      "blockHash": "0x0b0aa7869171f6769d0d0dc79c67dddd97884dde3fe1997aecf705c16c7da93e",
      "blockNumber": "0x21d8eeb",
      "gasUsed": "0x6ef7",
      "effectiveGasPrice": "0x13f055",
      "blobGasUsed": "0x79e0",
      "from": "0xef4db09d536439831fecaa33fe4250168976535e",
      "to": "0xdab8df575324454673f6afd16b6262468e31169b",
      "contractAddress": null,
      "daFootprintGasScalar": "0x138",
      "l1BaseFeeScalar": "0x44d",
      "l1BlobBaseFee": "0x8fea78e8",
      "l1BlobBaseFeeScalar": "0xa118b",
      "l1Fee": "0x25187f9d9d",
      "l1GasPrice": "0x1c0a8c",
      "l1GasUsed": "0x640"
    }
  ],
  "libraries": [],
  "pending": [],
  "returns": {},
  "timestamp": 1766751452,
  "chain": 84532,
  "commit": "c4467fa"
}